:100000000C94AA010C94D2010C94D2010C94D2014C
:100010000C94D2010C94D2010C94D2010C94D20114
:100020000C94D2010C94D2010C94D2010C94D20104
:100030000C94D2010C94D2010C94D2010C94D201F4
:100040000C94BB040C94D2010C94D2010C94D201F8
:100050000C94D2010C94D2010C94D2010C94D201D4
:100060000C94D2010C94D20100000008000201009F
:100070000003040700000000000000000308000067
:1000800000000001085F00000000030803000300F7
:10009000000508143E143E140408246A2B120005BF
:1000A00008631308646305083649562050010803A5
:1000B0000000000003081C22410000030841221C2C
:1000C0000000050828180E1828050808083E08082A
:1000D0000208B070000000040808080808000208C0
:1000E00060600000000408601806010004083E413A
:1000F000413E000308427F40000004086251494627
:10010000000408224149360004081814127F000434
:1001100008274545390004083E4949300004086174
:100120001109070004083649493600040806494900
:100130003E0002085000000000020880500000004D
:1001400003081028440000030814141400000308D6
:1001500044281000000408025909060005083E4919
:10016000555D0E04087E11117E0004087F49493652
:100170000004083E4141220004087F41413E000442
:10018000087F4949410004087F0909010004083E2D
:1001900041497A0004087F08087F000308417F4135
:1001A000000004083040413F0004087F0814630049
:1001B00004087F4040400005087F020C027F0508CC
:1001C0007F0408107F04083E41413E0004087F0977
:1001D00009060004083E4141BE0004087F09097673
:1001E0000004084649493200050801017F01010465
:1001F000083F40403F0005080F3040300F05083FE2
:100200004038403F05086314081463050807087068
:1002100008070408615149470002087F41000000B7
:10022000040801061860000208417F00000003086E
:1002300002010200000408404040400002080102A0
:100240000000000408205454780004087F44443817
:10025000000408384444000004083844447F000483
:100260000838545418000308047E05000004089858
:10027000A4A4780004087F040478000308447D40A7
:10028000000004084080847D0004087F102844009A
:100290000308417F40000005087C047C04780408C2
:1002A0007C04047800040838444438000408FC2422
:1002B0002418000408182424FC0004087C08040402
:1002C00000040848545424000308043F4400000478
:1002D000083C40407C0005081C2040201C05083CD0
:1002E000403C403C0508442810284404089CA0A039
:1002F0007C00030864544C000003080836410000E9
:1003000001087F00000000030841360800000408CF
:10031000080408040000000000250028002B00004D
:10032000000000240027002A00040404040404043C
:100330000402020202020203030303030301020494
:100340000810204080010204081020010204081057
:100350002000F60511241FBECFEFD8E0DEBFCDBFD1
:1003600011E0A0E0B1E0E6E3FCE002C005900D92F0
:10037000AA31B107D9F721E0AAE1B1E001C01D928D
:10038000AE37B207E1F711E0CAEAD1E004C0219725
:10039000FE010E941306C93AD107C9F70E9405055C
:1003A0000C9419060C94000090E0FC01E35CFC4FF7
:1003B0002491FC01E75DFC4F8491882399F090E043
:1003C000880F991FFC01E15EFC4FA591B491FC01DF
:1003D000EB5EFC4F859194918FB7F894EC91E22BF2
:1003E000EC938FBF089590E0FC01E859FF4F3491E2
:1003F000FC01E35CFC4F2491FC01E75DFC4FE491C0
:10040000EE2309F43BC0332339F1333091F038F453
:100410003130A9F0323001F584B58F7D12C037300C
:1004200091F03830A1F03430B9F4809180008F7DA4
:1004300003C0809180008F77809380000DC084B5C9
:100440008F7784BD09C08091B0008F7703C0809101
:10045000B0008F7D8093B000F0E0EE0FFF1FEB5EE9
:10046000FC4FA591B4918FB7F894EC91611103C042
:1004700020952E2301C02E2B2C938FBF08953FB7BC
:10048000F89480911F0190912001A0912101B091D9
:10049000220126B5A89B05C02F3F19F00196A11D8A
:1004A000B11D3FBFBA2FA92F982F8827820F911D0A
:1004B000A11DB11DBC01CD0142E0660F771F881F51
:1004C000991F4A95D1F708958F929F92AF92BF924C
:1004D000CF92DF92EF92FF926B017C010E943F026C
:1004E0004B015C01C114D104E104F104F1F00E945C
:1004F0003F02DC01CB0188199909AA09BB09883E92
:100500009340A105B10570F321E0C21AD108E108BA
:10051000F10888EE880E83E0981EA11CB11CC1145E
:10052000D104E104F10419F7DDCFFF90EF90DF90E3
:10053000CF90BF90AF909F908F900895EF92FF92D1
:100540000F931F93CF93DF93E82EF62EC7E0D0E0F2
:10055000042F10E098010C2E02C0359527950A94BF
:10056000E2F7B901617077278E2D0E94F30161E0F7
:100570008F2D0E94F30160E08F2D0E94F3012197DF
:1005800048F7DF91CF911F910F91FF90EF90089561
:10059000DF92EF92FF920F931F93CF93DF93C82FB9
:1005A000D62EE82EE694E694E694F12CD82FD77058
:1005B00060E080912B010E94F30100E010E0DF5F1A
:1005C00080912D0190E008171907ECF40E151F0516
:1005D00049F44D2F60912C0180912A010E949E02C6
:1005E0004D2D08C040E060912C0180912A010E94AD
:1005F0009E0240E060912C0180912A010E949E029F
:100600000F5F1F4FDDCF60E080912B010E94F3014F
:1006100061E080912B010E94F301EC2FF0E0E65D98
:10062000FE4FD482DF91CF911F910F91FF90EF90F9
:10063000DF900895DF92EF92FF920F931F93CF9375
:10064000DF93C0E0D0E060E080912B010E94F301D5
:100650007E0100E010E0DC2ED39480912D0190E02B
:1006600008171907BCF44D2D60912C0180912A01C7
:100670000E949E02F701E65DFE4F448160912C01CD
:1006800080912A010E949E0288E0E80EF11C0F5F13
:100690001F4FE3CF60E080912B010E94F30161E0E6
:1006A00080912B010E94F3012196C830D10559F6A3
:1006B000DF91CF911F910F91FF90EF90DF90089500
:1006C0000F931F93CF93DF93182F062F60E0809135
:1006D0002B010E94F301C0E0D0E020912D0130E019
:1006E000C217D30784F4412F60912C0180912A0115
:1006F0000E949E02402F60912C0180912A010E944D
:100700009E022196EACF60E080912B010E94F301C6
:1007100061E080912B01DF91CF911F910F910C949B
:10072000F3012F923F924F925F926F927F928F923E
:100730009F92AF92BF92CF92DF92EF92FF920F9370
:100740001F93CF93DF93CDB7DEB727970FB6F894FB
:10075000DEBF0FBECDBF1C01412C512C3201439492
:10076000F10161911F01662309F4ECC06032C4F30A
:10077000605227E0629FB001112464587F4F47E028
:1007800050E083E291E00E940A06C0902301D12C40
:10079000A0902401B12C38E0A316B10449F086E3FF
:1007A000E82E81E0F82E28E030E03F832E832EC033
:1007B00008E010E0C80108978C159D056CF4003521
:1007C00011053CF4F801E35EFE4F6081802F0E942A
:1007D000C8020F5F1F4FEECF8091230160E0885F5A
:1007E0000E94C80200E010E09DC0203531054CF1A8
:1007F0000F5F1F4F2E813F810A151B05B4F32F5F3A
:100800003F4F3F832E833FEFE31AF30A8E819F8190
:1008100008978C159D0504F78E818695869586959B
:10082000282F30E03A83298300E010E02E813F81B9
:10083000235E3E4F3C832B838E8187708F5F8D8339
:10084000D9CF08301105A4F6EB81FC81808190E0BE
:10085000002E02C0959587950A94E2F780FF0EC09E
:10086000F7012081D301C201002E04C0880F991F17
:10087000AA1FBB1F0A94D2F7822B0EC0D301C2015C
:10088000002E04C0880F991FAA1FBB1F0A94D2F71D
:100890008095F70190818923808360E080912B010E
:1008A0000E94F301812C912C80912D0190E08816FB
:1008B00099060CF529813A818216930651F44D81EF
:1008C00060912C0180912A010E949E02F7014081D3
:1008D00008C040E060912C0180912A010E949E0294
:1008E00040E060912C0180912A010E949E02FFEF5E
:1008F0008F1A9F0AD9CF60E080912B010E94F301EB
:1009000061E080912B010E94F30172CF8191DF01A0
:1009100012978C9331E0EF37F307C1F70E941A0367
:100920000F5F1F4F8091230190E0801791070CF417
:1009300017CF68EE73E080E090E00E946402EFE27F
:10094000F1E0E4CF27960FB6F894DEBF0FBECDBF1F
:10095000DF91CF911F910F91FF90EF90DF90CF909B
:10096000BF90AF909F908F907F906F905F904F90CF
:100970003F902F9008951F920F920FB60F9211245F
:100980002F933F938F939F93AF93BF9380911B01BE
:1009900090911C01A0911D01B0911E0130911A018E
:1009A00023E0230F2D3720F40196A11DB11D05C0B2
:1009B00026E8230F0296A11DB11D20931A018093F2
:1009C0001B0190931C01A0931D01B0931E01809107
:1009D0001F0190912001A0912101B0912201019667
:1009E000A11DB11D80931F0190932001A0932101AF
:1009F000B0932201BF91AF919F918F913F912F9121
:100A00000F900FBE0F901F901895789484B5826058
:100A100084BD84B5816084BD85B5826085BD85B5A2
:100A2000816085BD80916E00816080936E00109220
:100A3000810080918100826080938100809181009B
:100A4000816080938100809180008160809380002C
:100A50008091B10084608093B1008091B00081608A
:100A60008093B00080917A00846080937A008091B6
:100A70007A00826080937A0080917A00816080930E
:100A80007A0080917A00806880937A001092C10089
:100A900080912A010E94D40180912C010E94D401EE
:100AA00080912B010E94D40161E080912C010E9471
:100AB000F30167E08BE00E94600360E089E00E9440
:100AC000600361E08CE00E94600360E08FE00E94C0
:100AD0006003C0E0D0E060E080912B010E94F30150
:100AE0000EE211E06801E12CF12CBC2EB394809150
:100AF0002D0190E0E816F906B4F44B2D60912C011D
:100B000080912A010E949E0240E060912C01809118
:100B10002A010E949E02F6011082FFEFEF1AFF0ADF
:100B2000CC0EDD1EE4CF60E080912B010E94F3012A
:100B300061E080912B010E94F3012196C830D1051C
:100B400051F6F80111928F01F1E00E371F07C9F736
:100B50006FE08AE00E94600364E08AE00E94600324
:100B6000C0E0D0E068EE73E080E090E00E946402B4
:100B70000FE211E0F8018191DF0112978C9381E07F
:100B8000EF37F807C1F7E0912D0188E0E89FF00109
:100B90001124E65DFE4F13820E941A038AE091E061
:100BA0000E94910368EE73E080E090E00E9464028E
:100BB000F80181918F0132978083F1E00F371F0791
:100BC000B9F7E0912D0188E0E89FF0011124E65D7E
:100BD000FE4F13820E941A0380E091E00E9491036D
:100BE000209709F4BFCF0E940000BCCF8BE0809318
:100BF0002A018AE080932B018DE080932C0181E013
:100C000080932D01EEE2F1E0119281E0EE37F807DA
:100C1000D9F70895FB01DC0102C005900D92415007
:100C20005040D8F70895EE0FFF1F0590F491E02D86
:060C30000994F894FFCFC7
:100C36007465737420313233200041726475696EB5
:0A0C46006F204D6174726978200080
:107E0000112484B714BE81FFF0D085E080938100F7
:107E100082E08093C00088E18093C10086E0809377
:107E2000C20080E18093C4008EE0C9D0259A86E02C
:107E300020E33CEF91E0309385002093840096BBD3
:107E4000B09BFECF1D9AA8958150A9F7CC24DD24C4
:107E500088248394B5E0AB2EA1E19A2EF3E0BF2EE7
:107E6000A2D0813461F49FD0082FAFD0023811F036
:107E7000013811F484E001C083E08DD089C08234E0
:107E800011F484E103C0853419F485E0A6D080C0E4
:107E9000853579F488D0E82EFF2485D0082F10E0AE
:107EA000102F00270E291F29000F111F8ED06801E7
:107EB0006FC0863521F484E090D080E0DECF843638
:107EC00009F040C070D06FD0082F6DD080E0C81688
:107ED00080E7D80618F4F601B7BEE895C0E0D1E017
:107EE00062D089930C17E1F7F0E0CF16F0E7DF06D8
:107EF00018F0F601B7BEE89568D007B600FCFDCFD4
:107F0000A601A0E0B1E02C9130E011968C91119780
:107F100090E0982F8827822B932B1296FA010C0160
:107F200087BEE89511244E5F5F4FF1E0A038BF0790
:107F300051F7F601A7BEE89507B600FCFDCF97BE46
:107F4000E89526C08437B1F42ED02DD0F82E2BD052
:107F50003CD0F601EF2C8F010F5F1F4F84911BD097
:107F6000EA94F801C1F70894C11CD11CFA94CF0C13
:107F7000D11C0EC0853739F428D08EE10CD085E9AC
:107F80000AD08FE07ACF813511F488E018D01DD067
:107F900080E101D065CF982F8091C00085FFFCCF94
:107FA0009093C60008958091C00087FFFCCF809118
:107FB000C00084FD01C0A8958091C6000895E0E648
:107FC000F0E098E1908380830895EDDF803219F02E
:107FD00088E0F5DFFFCF84E1DECF1F93182FE3DFCA
:107FE0001150E9F7F2DF1F91089580E0E8DFEE27F6
:047FF000FF270994CA
:027FFE00040479
:0400000300007E007B
:00000001FF
