:100000000C945D000C947A000C947A000C947A00A5
:100010000C947A000C947A000C947A000C947A0078
:100020000C947A000C947A000C947A000C947A0068
:100030000C947A000C947A000C947A000C947A0058
:100040000C946F020C947A000C947A000C947A0051
:100050000C947A000C947A000C947A000C947A0038
:100060000C947A000C947A00000000080002010051
:100070000003040700000000000000000000000072
:10008000250028002B0000000000240027002A0083
:10009000040404040404040402020202020203032E
:1000A0000303030301020408102040800102040836
:1000B0001020010204081020D90411241FBECFEF24
:1000C000D8E0DEBFCDBF21E0A0E0B1E001C01D92CD
:1000D000A136B207E1F710E0CDE5D0E004C02197EA
:1000E000FE010E945605CC35D107C9F70E94B9021E
:1000F0000C945C050C94000090E0FC01EC55FF4F63
:100100002491FC01E057FF4F8491882399F090E0FF
:10011000880F991FFC01EA57FF4FA591B491FC018C
:10012000E458FF4F859194918FB7F894EC91E22BAE
:10013000EC938FBF089590E0FC01E859FF4F349194
:10014000FC01EC55FF4F2491FC01E057FF4FE49177
:10015000EE2309F43BC0332339F1333091F038F406
:100160003130A9F0323001F584B58F7D12C03730BF
:1001700091F03830A1F03430B9F4809180008F7D57
:1001800003C0809180008F77809380000DC084B57C
:100190008F7784BD09C08091B0008F7703C08091B4
:1001A000B0008F7D8093B000F0E0EE0FFF1FE458A9
:1001B000FF4FA591B4918FB7F894EC91611103C0F2
:1001C00020952E2301C02E2B2C938FBF08953FB76F
:1001D000F8948091050190910601A0910701B091DA
:1001E000080126B5A89B05C02F3F19F00196A11D57
:1001F000B11D3FBFBA2FA92F982F8827820F911DBD
:10020000A11DB11DBC01CD0142E0660F771F881F03
:10021000991F4A95D1F708958F929F92AF92BF92FE
:10022000CF92DF92EF92FF926B017C010E94E70078
:100230004B015C01C114D104E104F104F1F00E940E
:10024000E700DC01CB0188199909AA09BB09883E9E
:100250009340A105B10570F321E0C21AD108E1086D
:10026000F10888EE880E83E0981EA11CB11CC11411
:10027000D104E104F10419F7DDCFFF90EF90DF9096
:10028000CF90BF90AF909F908F9008952F923F9204
:100290004F925F926F927F928F929F92AF92BF9296
:1002A000CF92DF92EF92FF920F931F93CF93DF9342
:1002B00000D0CDB7DEB78C0149832A83660F771F44
:1002C000F801EA5AFF4FE080F180EE0CFF1CF801C4
:1002D000CF01801B910B8E159F0514F41192F8CF5E
:1002E0008981F801E60FF71F81838A818083580195
:1002F00084E5A80EB11C60E0F50180810E949B009E
:10030000E00EF11E4801F2E58F0E911C380180E5E8
:10031000680E711CC701801B910B1816190624F575
:10032000F701C2907F01F4013080F301208087E063
:10033000482E512CD12CB601042C02C0759567951E
:100340000A94E2F761707727822D0E949B0061E09A
:10035000832D0E949B0060E0832D0E949B00F1E0B2
:100360004F1A510840F7D6CF61E0F50180810F9018
:100370000F90DF91CF911F910F91FF90EF90DF9041
:10038000CF90BF90AF909F908F907F906F905F9035
:100390004F903F902F900C949B00262F40915F012F
:1003A00050916001141615067CF48830910560F4B4
:1003B000FC01E75FFE4F608B41E0480F60E070E0BA
:1003C00089E091E00C944601089520915F013091FD
:1003D00060011216130614F588309105F8F46830A0
:1003E0007105E0F420E830E002C0359527956A9564
:1003F000E2F7FC01E75FFE4F442319F03089232B1D
:1004000003C0209530892323208B41E0480F2089A9
:1004100060E070E089E091E00C9446010895CF928D
:10042000DF92EF92FF920F931F93CF93DF93209170
:100430005F013091600112161306ECF488309105CB
:10044000D0F4062F7C01C0E0D0E010E087E0C82E99
:10045000D12CC6018C1B9D0BA80102C05595479558
:100460008A95E2F74170B701CE010E94E50121961D
:10047000C830D10571F7DF91CF911F910F91FF9097
:10048000EF90DF90CF900895CF92DF92EF92FF929E
:100490000F931F93CF93DF938C017B016B0183E05C
:1004A000CC0CDD1C8A95E1F7C1E0D0E0FE01EC0D3B
:1004B000FD1DE00FF11F178620E04C2FB701C8018A
:1004C0000E9446012196C930D10581F7DF91CF9175
:1004D0001F910F91FF90EF90DF90CF9008951F92A2
:1004E0000F920FB60F9211242F933F938F939F93E8
:1004F000AF93BF938091010190910201A0910301FC
:10050000B09104013091000123E0230F2D3720F436
:100510000196A11DB11D05C026E8230F0296A11D5D
:10052000B11D209300018093010190930201A093DB
:100530000301B09304018091050190910601A091FF
:100540000701B09108010196A11DB11D809305011D
:1005500090930601A0930701B0930801BF91AF915A
:100560009F918F913F912F910F900FBE0F901F90F1
:100570001895789484B5826084BD84B5816084BD0B
:1005800085B5826085BD85B5816085BD80916E0031
:10059000816080936E001092810080918100826062
:1005A000809381008091810081608093810080919F
:1005B00080008160809380008091B100846080938E
:1005C000B1008091B00081608093B00080917A008A
:1005D000846080937A0080917A00826080937A00B0
:1005E00080917A00816080937A0080917A0080689F
:1005F00080937A001092C10080915F019091600118
:100600001816190644F421E04CE060E070E089E03F
:1006100091E00E94460180915F019091600118165F
:10062000190644F428E04AE060E070E089E091E0D7
:100630000E94460180915F01909160011816190691
:1006400034F460E070E089E091E00E94440280E0D0
:10065000E82E80E0F82E6EE780E090E00E94CD0169
:1006600068E881E090E00E94CD0168E882E090E0D7
:100670000E94CD0168E883E090E00E94CD016EE722
:1006800084E090E00E94CD0164E670E080E090E0BC
:100690000E940C016EE380E090E00E94CD0160E1D9
:1006A00081E090E00E94CD0160E282E090E00E9453
:1006B000CD0160E283E090E00E94CD0160E184E042
:1006C00090E00E94CD0164E670E080E090E00E943E
:1006D0000C016CE180E090E00E94CD0162E281E0DB
:1006E00090E00E94CD0162E282E090E00E94CD01A4
:1006F00062E183E090E00E94CD016EEF84E090E043
:100700000E94CD0164E670E080E090E00E940C0160
:100710006CE380E090E00E94CD0162E081E090E037
:100720000E94CD0162E082E090E00E94CD0164E091
:1007300083E090E00E94CD016EE384E090E00E94AF
:10074000CD0164E670E080E090E00E940C0160E082
:1007500080E090E00E94CD0162E281E090E00E94A2
:10076000CD016EEB82E090E00E94CD0162E083E07B
:1007700090E00E94CD0160E084E090E00E94CD0115
:1007800064E670E080E090E00E940C016EE380E09F
:1007900090E00E94CD0160E181E090E00E94CD01F7
:1007A00060E282E090E00E94CD0160E283E090E0B0
:1007B0000E94CD016EE184E090E00E94CD0164E6EC
:1007C00070E080E090E00E940C016CE180E090E03D
:1007D0000E94CD0162E281E090E00E94CD0162E2E0
:1007E00082E090E00E94CD0162E283E090E00E940E
:1007F000CD016CE184E090E00E94CD0164E670E000
:1008000080E090E00E940C0160E080E090E00E94B7
:10081000CD0160E081E090E00E94CD0160E082E0E7
:1008200090E00E94CD0160E083E090E00E94CD0165
:1008300060E084E090E00E94CD0164E670E080E03A
:1008400090E00E940C01C0E0D0E064E670E080E03F
:1008500090E00E940C0160EACE010E94CD0164E6A6
:1008600070E080E090E00E940C0160E0CE010E9408
:10087000CD0180E090E08C010F5F1F4F8C179D072A
:10088000B1F064E670E080E090E00E940C0160EA64
:10089000CE010E94CD0164E670E080E090E00E940D
:1008A0000C0160E0CE010E94CD01C801E4CFE80157
:1008B0000830110551F6C0E0D0E064E670E080E059
:1008C00090E00E940C0160EACE010E940F0264E6F3
:1008D00070E080E090E00E940C0160E0CE010E9498
:1008E0000F0280E090E08C010F5F1F4F8C179D0777
:1008F000B1F064E670E080E090E00E940C0160EAF4
:10090000CE010E940F0264E670E080E090E00E9459
:100910000C0160E0CE010E940F02C801E4CFE801A3
:100920000830110551F600E010E0C0E0D0E064E6C8
:1009300070E080E090E00E940C0141E0BE01C8013F
:100940000E94E50164E670E080E090E00E940C0106
:1009500080E090E09C012F5F3F4F69018C179D075D
:10096000C1F040E0BE01C8010E94E50164E670E00C
:1009700080E090E00E940C0141E0BE01C8010E94AD
:10098000E50164E670E080E090E00E940C01C601A1
:10099000E1CFE9012830310551F60F5F1F4F0830D4
:1009A000110519F6E114F10409F455CE0E94000076
:1009B00052CECF93DF93CBE0D0E0D0935A01C093D7
:1009C00059018DE090E090935C0180935B018AE097
:1009D00090E090935E0180935D0181E090E09093C0
:1009E000600180935F018BE00E947C0080915B013D
:1009F0000E947C0080915D010E947C0061E08091FA
:100A00005D010E949B00D0935A01C0935901E9E116
:100A1000F1E0119281E0E935F807D9F7C0E0D0E0C4
:100A200080915F0190916001C817D907E4F520E03B
:100A30004FE0BE0189E091E00E944601D7FD0EC063
:100A400080915F0190916001C817D9073CF427E0BD
:100A50004BE0BE0189E091E00E94460120E049E0C0
:100A6000BE0189E091E00E944601D7FD1AC0809145
:100A70005F0190916001C817D9072CF4BE0189E08D
:100A800091E00E94440280915F0190916001C8173B
:100A9000D9073CF420E04CE0BE0189E091E00E94DF
:100AA00046012196BDCFDF91CF910895EE0FFF1F34
:0C0AB0000590F491E02D0994F894FFCF1C
:00000001FF
