:100000000C9465030C948D030C948D030C948D0358
:100010000C948D030C948D030C948D030C948D0320
:100020000C948D030C948D030C948D030C948D0310
:100030000C948D030C948D030C948D030C948D0300
:100040000C9408130C948D030C9400120C94082348
:100050000C948D030C948D030C948D030C948D03E0
:100060000C948D030C948D0374077E078107880719
:100070008B07DB0D92074309650A120C160BEC0C7B
:10008000220E250E2E0E2C0E370E350E3E0E410E74
:10009000480E4B0E520E550E5D0E600E640E670E2E
:1000A00052158715C115081653169B16E21602172E
:1000B0007717CF17621862186717621862186218EC
:1000C0000000000800020100000304070000000017
:1000D00000000000460100FF0800053E5B4F5B3E4C
:1000E000053E6B4F6B3E051C3E7C3E1C05183C7E5E
:1000F0003C18051C577D571C051C5E7F5E1C0400C8
:10010000183C1805FFE7C3E7FF040018241805FF93
:10011000E7DBE7FF0530483A060E05262979292650
:1001200005407F05050705407F05253F055A3CE74B
:100130003C5A057F3E1C1C0805081C1C3E7F05140C
:10014000227F2214055F5F005F5F0506097F017F44
:10015000046689956A0560606060600594A2FFA2EC
:10016000940508047E04080510207E201005080868
:100170002A1C0805081C2A0808051E101010100566
:100180000C1E0C1E0C0530383E383005060E3E0E97
:1001900006020000015F0307000705147F147F14A7
:1001A00005242A7F2A12052313086462053649565E
:1001B000205003080703031C22410341221C052A87
:1001C0001C7F1C2A0508083E0808038070300508BB
:1001D00008080808026060052010080402053E5166
:1001E00049453E03427F4005724949494605214140
:1001F000494D33051814127F10052745454539052B
:100200003C4A494931054121110907053649494907
:100210003605464949291E01140280680408142243
:100220004105141414141404412214080502015940
:100230000906053E415D594E057C1211127C057F71
:1002400049494936053E41414122057F4141413EF0
:10025000057F49494941057F09090901053E414199
:100260005173057F0808087F03417F410520404105
:100270003F01057F08142241057F40404040057F33
:10028000021C027F057F0408107F053E4141413E6C
:10029000057F09090906053E4151215E057F0919BF
:1002A00029460526494949320503017F0103053FD7
:1002B0004040403F051F2040201F053F4038403F41
:1002C00005631408146305030478040305615949A0
:1002D0004D43037F41410502040810200341417F43
:1002E00005040201020405404040404003030708A2
:1002F000052054547840057F284444380538444448
:10030000442805384444287F0538545454180408B8
:100310007E09020518A4A49C78057F0804047803CC
:10032000447D40044080807A047F10284403417F4C
:1003300040057C04780478057C080404780538447A
:1003400044443805FC182424180518242418FC05F6
:100350007C0804040805485454542404043F4424ED
:10036000053C4040207C051C2040201C053C4030C2
:10037000403C054428102844054C9090907C05444E
:1003800064544C44030836410177034136080502A2
:1003900001020402053C2623263C051EA1A1611290
:1003A0000538424022780538545455590521555591
:1003B0007941052154547841052155547840052050
:1003C0005455794005183CA4E42405395555555930
:1003D00005385554555805395554545803457C41F2
:1003E0000402457D420401457C4005F0292429F0A2
:1003F00005F0282528F0047C545545072054547CEA
:10040000545408067C0A097F494905324949493252
:1004100005304A484A3005324A484830053A414199
:10042000217A053A42402078049DA0A07D053845F8
:10043000444538053C4140413C053C24FF2424050B
:10044000487E494366052B2FFC2F2B05FF0929F613
:100450002005C0887E090305205454794103447D5A
:1004600041053048484A3205384040227A047A0A29
:100470000A72057D0D19317D052629292F280526AB
:10048000292929260530484D402005380808080844
:10049000050808080838052F10C8ACBA052F102821
:1004A00034FA017B0508142A14220522142A1408A0
:1004B00005AA005500AA05AA55AA55AA05000000DC
:1004C00000FF0510101010FF0514141414FF051080
:1004D00010FF00FF051010F010F00514141414FCA8
:1004E000051414F700FF050000FF00FF051414F4C5
:1004F00004FC05141417101F0510101F101F0514FD
:100500001414141F0510101010F0050000001F1027
:10051000051010101F1005101010F010050000003D
:10052000FF1005101010101005101010FF1005001E
:100530000000FF14050000FF00FF0500001F10175A
:10054000050000FC04F4051414171017051414F426
:1005500004F4050000FF00F7051414141414051426
:1005600014F700F70514141417140510101F101FAA
:1005700005141414F414051010F010F00500001FF9
:10058000101F050000001F1405000000FC140500EA
:1005900000F010F0051010FF10FF05141414FF14E4
:1005A00005101010101F05000000F01005FFFFFFE0
:1005B000FFFF05F0F0F0F0F003FFFFFF0500000083
:1005C000FFFF050F0F0F0F0F053844443844057C1B
:1005D0002A2A3E14057E0202060605027E027E02DB
:1005E000056355494163053844443C0405407E2079
:1005F0001E200506027E02020599A5E7A599051CA5
:100600002A492A1C054C7201724C05304A4D4D3066
:1006100005304878483005BC625A463D043E494999
:1006200049057E0101017E052A2A2A2A2A05444419
:100630005F44440540514A44400540444A51400506
:100640000000FF010303E080FF0508086B6B08054D
:10065000361236243605060F090F06040000181856
:100660000400001010053040FF010105001F0101CA
:100670001E0500191D171205003C3C3C3C05FF817E
:100680008181FF05FFFFFFFFFF000000002500281C
:10069000002B0000000000240027002A00040404AE
:1006A000040404040402020202020203030303031B
:1006B00003010204081020408001020408102001F8
:1006C000020408102000A125512511241FBECFEFE0
:1006D000D8E0DEBFCDBF11E0A0E0B1E0EEE5F5E58A
:1006E00002C005900D92A23EB107D9F724E0A2EE18
:1006F000B1E001C01D92A531B207E1F713E0C4E6F5
:10070000D3E004C02197FE010E945329C336D107CC
:10071000C9F70E9434260C94A22A0C940000CF93AF
:10072000DF9300D0CDB7DEB769831A82DC01ED918B
:10073000FC910084F185E02DBE016F5F7F4F09952C
:1007400081E090E00F900F90DF91CF910895089590
:1007500080E090E00895FC01968D828DA4A5B5A55A
:1007600091FD0AC0882319F08689978902C0808D7F
:10077000918D0597B1F409C0882319F0868997896E
:1007800002C0808D918D059761F081E022A533A58F
:10079000A217B30709F080E086A71197B5A7A4A711
:1007A0000895CD01019695A784A781E011969C91AB
:1007B000911180E086A70895562FFB018E2F851B8F
:1007C0008417A0F49081892F8575880F969595756B
:1007D000892B282F237394E0299F9001112486955B
:1007E00086958373822B82958193E8CF0895842F19
:1007F000869550E0460F571F262FFB019E2F921B18
:10080000981740F4908141505109DA013C9131939D
:100810009C93F4CF0895CF92DF92EF92FF920F93C3
:100820001F93CF93DF9300D0CDB7DEB77C01890152
:10083000DC019F96ED91FC91D0973097C9F08081B3
:10084000861312C00180F281E02D8081F42E84177E
:1008500008F4F82E4F2D50E0BF016F5F7F4FC801A5
:100860000E948B2A8F2D75C00380F481E02DE5CF87
:10087000F70120AD31AD80819181DC015496ED917D
:10088000FC9155972E173F0771F02115310511F492
:1008900024ED30E0FC01358B248B4A8369830E9470
:1008A0007A1369814A81F701A081B181011511058F
:1008B00009F44EC05B962C915B975C969C915C977B
:1008C00059968C9159976817C8F05A963C915A9747
:1008D0003617A0F0C22ED92E861781F05496ED91CE
:1008E000FC915597EC0DFD1DE49196012E0F311DE5
:1008F0006901FFEFCF1ADF0A8F5FEECF2FEFC2162D
:10090000D20639F450E060E070E0C8010E94942AF9
:100910001FC0C6015496ED91FC915597EC0DFD1D3D
:100920002491421708F04491302FB8010196262FE8
:10093000231B241758F45496ED91FC915597E80F1A
:10094000F91F2491FB012193BF01F0CF842F01C037
:1009500080E00F900F90DF91CF911F910F91FF904A
:10096000EF90DF90CF9008951F93CF93DF93EC012A
:10097000142F2AA93BA949A90E940B04112379F03D
:1009800090E02CA9921758F429A9821730F4EAA90B
:10099000FBA9E80FF11D10828F5F9F5FF2CFDF91FF
:1009A000CF911F9108950F931F93FC01678F062F1E
:1009B00010E022E030E042A161A1808191810E949B
:1009C000B7201F910F9108950F931F939B018A01E8
:1009D000FC014185415060E00E94B7201F910F91BA
:1009E00008951F93CF93DF93EC018EA5811137C03B
:1009F000ECA5FDA541E08181811101C040E060814D
:100A0000CE010E94B404182F9E8D8A8D91FD0AC0DC
:100A1000882319F08E899F8902C0888D998D05974A
:100A200081F409C0882319F08E899F8902C0888DBE
:100A3000998D059731F06AA97BA9412FCE010E94BB
:100A4000F7038E8D80FF06C06AA97BA9412FCE01D6
:100A50000E94DC03CE010E94AB03812F01C080E025
:100A6000DF91CF911F9108951F93CF93DF93EC01F6
:100A7000EAA5FBA5FDA7ECA7309719F080818111AD
:100A800004C081E08EA780E054C01EA69E8D8A8D92
:100A900091FD0AC0882319F08E899F8902C0888D34
:100AA000998D059781F409C0882319F08E899F8953
:100AB00002C0888D998D059731F001900020E9F7EB
:100AC0003297FDA7ECA7ECA5FDA541E0818181113E
:100AD00001C040E06081CE010E94B404182F9E8DB9
:100AE0008A8D91FD0AC0882319F08E899F8902C0E2
:100AF000888D998D059781F409C0882319F08E8916
:100B00009F8902C0888D998D059731F06AA97BA9CC
:100B1000412FCE010E94F7038E8D80FF06C06AA987
:100B20007BA9412FCE010E94DC03CE010E94AB03C2
:100B3000812FDF91CF911F910895FC0184899589C0
:100B40008230910519F42189328902C027853089C4
:100B500034A323A337A326A38230910519F4278554
:100B6000308902C02189328931A720A7029711F06C
:100B70008FEF01C081E085A308952F923F924F929D
:100B80005F926F927F928F929F92AF92BF92CF921D
:100B9000DF92EF92FF920F931F93CF93DF93CDB726
:100BA000DEB761970FB6F894DEBF0FBECDBF4C0124
:100BB0009C012C5F3F4F3A87298740E050E06AE074
:100BC00070E0C9010E94E4041B821C82A401465DFE
:100BD0005E4F5C874B8782EE91E0885F8D87EB8567
:100BE000FC858081FB81F81710F00C9478119B81B3
:100BF000292E312CF401A2E49A9FE00DF11D11245D
:100C0000DF01AF5BBF4F1C9284A595A5863091058F
:100C100009F44EC0059741F18FB7F8944091ED016A
:100C20005091EE016091EF017091F0018FBF82E46D
:100C3000829D8001839D100D1124F401E00FF11FAE
:100C400084A195A1A6A1B7A1481B590B6A0B7B0BE8
:100C500080A591A5A0E0B0E0481759076A077B0777
:100C600010F40C94A50E1FC08FB7F8944091ED01BD
:100C70005091EE016091EF017091F0018FBF84A15E
:100C800095A1A6A1B7A1481B590B6A0B7B0B82A5A6
:100C900093A5A0E0B0E0481759076A077B0710F456
:100CA0000C94A50EB9CF83A181110C94A50E08C098
:100CB00081E09C81982B9C83AB81AF5FAB838FCF0E
:100CC0002FB7F8948091ED019091EE01A091EF0182
:100CD000B091F0012FBF84A395A3A6A3B7A381E091
:100CE000DF01AF5BBF4F8C931A964D905C9041141F
:100CF000510411F40C94950E0F5D1F4F9801280DAF
:100D0000391D3E832D8384A595A5009729F006976C
:100D100011F40C94950ECDC0DF01A35BBF4F11966B
:100D20005C924E921A97CC9038E0C39EC001112479
:100D30009C01295F3F4F54015B8142E4549FA00C0A
:100D4000B11C112462E4A60EB11CD5018C9169017D
:100D5000B8E08B9FC018D108112486010F5F1F4F88
:100D6000C12CD12C9F012D5A3F4F3A8329833F013B
:100D700032E5630E711C7F0145E5E40EF11CD201E2
:100D80006D912D016623A9F0A981BA812D913C9125
:100D9000F30140818D819E810E940B04C80ED11CFD
:100DA000D2018C91882359F3F7018081C80ED11CA0
:100DB000E6CF82E4829DF001839DF00D1124E80DC1
:100DC000F91DD7A6C6A685A996A981309105B9F1C6
:100DD00082309105D9F0892B09F05EC0DF01AD5B4F
:100DE000BF4F8C9190E0019623E0880F991F2A95C0
:100DF000E1F79C012150310931AB20AB0C151D05E9
:100E000060F18C199D0993AB82AB46C0D5018C91E2
:100E1000B8E08B9FC001112493AB82AB0C151D056C
:100E200060F4DF01AD5BBF4F8C9128E0829FC00171
:100E30001124079691AB80AB18C0019729C00C15FF
:100E40001D05A8F4DF01AD5BBF4F8C9138E0839F97
:100E5000C0011124079691AB80ABD5018C91B8E00D
:100E60008B9FC001112493AB82AB80E016C0D501EB
:100E70002C91C8018C199D0996958795B8E02B9FF8
:100E8000800D911D112493AB82AB21E0C21AD108D1
:100E9000C80ED91ED1AAC0AA81E092E4929DF001A9
:100EA000939DF00D1124E80DF91D91E0892784AB85
:100EB00093AF82E4829DF001839DF00D1124E80D33
:100EC000F91D13AD112321F007A8F0ADE02D03C0EB
:100ED00001ACF2ADE02D3197EC31F10508F0FEC622
:100EE000EC5CFF4F0C9453298D819E81112319F0E6
:100EF0000E948D187AC60E94962397C6412F61E002
:100F000002C0412F60E08D819E810E943422F2C692
:100F1000412F61E002C0412F60E08D819E810E94DF
:100F20006C1BE8C6112309F43FC112E4129D700145
:100F3000139DF00C1124E80CF91CD7019C968D919F
:100F40009C919D9782309105F1F11CF497FF05C0AB
:100F50004CC6039709F44FC048C68D819E810E94FC
:100F60003405F701EA5AFF4F8083811104C026E05F
:100F700030E0F70185C18D819E810E949623F701A3
:100F8000E95AFF4F11821082C1010196189FF001AA
:100F9000199FF00D1124E80DF91D8081F701EC5B1C
:100FA000FF4F38E0839FC001112491838083D701D4
:100FB000D0968D919C91D19735969183808383E0D3
:100FC00090E0F70195C68D819E810E94F104F701A2
:100FD000EA5AFF4F8083811104C085E090E0D70179
:100FE00002C3F701E95AFF4F1182108283E090E0BB
:100FF000F70195A784A782E4829D9001839D300D1F
:1010000011245901A80CB91C6501F4E4CF0ED11CC0
:10101000D6016D917C91F501E75BFF4F2081318115
:101020003A967F018501095A1F4F6217730751F5E0
:10103000D501DC968C91882359F00190F081E02D48
:10104000D8018D919C91E80FF91F4081409509C00E
:101050000190F081E02DD8018D919C91E80FF91F4E
:10106000408182E4829D9001839D300D112489018D
:10107000080D191DF80181A192A10E94492485E063
:1010800090E0B0C240815181D8018D919C91FA01CC
:10109000E80FF91F8081811104C0F601318320839C
:1010A00030C0D501DC964C91DC97419591968D919D
:1010B0009C9192970E944924F601608171816F5F33
:1010C0007F4F71836083D501DC964C91F7012081BD
:1010D0003181D8018D919C91F901E80FF91F4423CA
:1010E00019F04081409501C0408182E4829DF00169
:1010F000839DF00D1124E80DF91D81A192A10E949C
:10110000492412E4129DC001139D900D1124880DF5
:10111000991DDC01AC5BBF4F2D913C9111977C0177
:10112000E9E4EE0EF11CF7014081518124173507E7
:1011300001F5B1016F5F7F4F169FA001179F500D02
:101140001124480D591DFA014081F8E04F9FA0017C
:10115000112411965C934E9353964D915C91119787
:101160004F5F5F4F4D935C9321503109D7012D9311
:101170003C9382E4829DF001839DF00D1124E80DE3
:10118000F91D9F01295A3F4FCF018A5A9F4FDC0119
:101190008C9190E0D9012D913C912817390709F0E5
:1011A000A9C582E090E0A4C582E4829DF001839D00
:1011B000F00D1124E80DF91D84A595A58130910548
:1011C0000CF454C08430910594F0059709F04EC09A
:1011D00080A991A9DF01A75BBF4F11969C938E93C5
:1011E00015978D939C9383E090E095A784A782E464
:1011F000829D9001839D300D1124F901E80DF91DA8
:10120000E1A0F2A074AC5F01B4E4AB0EB11C6F01BD
:1012100029E4C20ED11C2F0132E3430E511CD5012B
:101220000D911C91602FC7010E94961A682F70E0E3
:10123000711003C020E030E002C02FEF30E06217F1
:10124000730709F085C5F60120813181D2016D91C6
:101250007C91261737070CF47BC5C9010197D6018D
:101260008D939C93F50131832083D9CF82E4829DB5
:10127000F001839DF00D1124E80DF91D26E030E00A
:1012800035A724A737C582E4829DF001839DF00D28
:101290001124E80DF91D84A595A5112309F48DC02D
:1012A0008430910584F48130910584F4892B09F010
:1012B0009CC4DF01AC5BBF4F1D921C9283E090E0A9
:1012C00095A784A703C0059709F08FC48D819E81DF
:1012D0000E9496238D819E810E948D1891012F5F1F
:1012E0003F4F82E4829FF001839FF00D1124E80DAF
:1012F000F91D4080440C440C440C55245394829DA9
:101300009001839D300D1124A901480D591D5A8368
:1013100049833A0153E4650E711C09811A810C5B03
:101320001F4FC980DA8061E2C60ED11CD3018C91B7
:1013300090E0019673E0880F991F7A95E1F7E42C0D
:10134000F12CE816F9065CF5D601AD90BC90642D41
:10135000C5010E94961A482F50E0552069F0F80107
:101360008081918127E030E0281B390B02C0559520
:1013700047952A95E2F70BC0D8018D919C91E7E043
:10138000F0E0E81BF90B01C0440FEA95EAF7B7015A
:10139000C5010E944924F1E05F264394C7CFF801BC
:1013A00080819181019691838083089709F0A2C47E
:1013B00085E090E0A981BA8116C18430910534F4AA
:1013C00081309105CCF4892B21F088C4059709F070
:1013D00085C482E4829DF001839DF00D1124E80D07
:1013E000F91DDF01AC5BBF4F81E090E08D939C93D2
:1013F00083E090E095A784A791012F5F3F4F82E49F
:10140000829FF001839FF00D1124E80DF91D4080AB
:10141000440C440C440C55245394829D9001839DAC
:10142000300D1124280D391D3901B3E46B0E711CE8
:1014300089010C5B1F4F6901E1E2CE0ED11CF30163
:10144000808190E0019663E0880F991F6A95E1F72B
:10145000E42CF12CE816F90654F5D601AD90BC90B9
:10146000642DC501298B3E870E94961A482F50E0B3
:1014700029893E85552041F0F801008002C0440FC3
:10148000551F0A94E2F707C0D8010C9002C0559589
:1014900047950A94E2F7B701C501298B3E870E9460
:1014A0004924B1E05B2643943E852989C8CFD80101
:1014B0008D919C91119701968D939C93089709F0BB
:1014C00019C446E050E0F901BAC382E4112309F4DB
:1014D00052C0829D8001839D100D1124080D191D9D
:1014E000D8019C968D919C919D978430910584F4B0
:1014F0008230910524F5009771F0019709F075C3CA
:10150000F801EC5BFF4F60817181CB0101965EC0F9
:101510000597A9F06AC3F801EC5BFF4F11821082B6
:101520003596AD81BE815F968C915F9790E09183F7
:101530008083CD010E94962381E090E0E0C182E4A7
:10154000829DF001839DF00D1124E80DF91D9F018E
:101550002C5B3F4FD9016D917C91CF01875B9F4FF1
:10156000DC018D919C91861797070CF446C3CB0143
:101570000196F90154C0829D8001839D100D1124B4
:10158000080D191DD8019C968D919C919D978430D2
:10159000910534F4813091055CF5892B21F045C328
:1015A000059709F042C3ED81FE81678D862F90E09B
:1015B00022E4229D8001239D100D1124080D191D88
:1015C000F801E75BFF4F9183808335979183808398
:1015D0008D819E810E94D3048D819E810E948D18F1
:1015E00083E090E0D8019D969C938E939C9782C354
:1015F000F801EC5BFF4F6081718177FF0EC035967B
:1016000060818D819E810E94D3048D819E810E9484
:10161000962326E030E0F80133CECB010197918389
:1016200080838D819E810E94D30464C382E4829D65
:10163000F001839DF00D1124E80DF91D84A595A5F9
:101640008230910509F481C02CF4009751F0019784
:10165000C9F0A1C28330910509F4B2C1059709F020
:101660009AC282E4829DF001839DF00D1124E80D61
:10167000F91DDF01AC5BBF4F1D921C9281E090E031
:1016800095A784A722E4229D8001239D100D11249B
:10169000080D191D580154E4A50EB11CD5018D91FA
:1016A0009C91119701968D939C93C1010196289F5F
:1016B000F001299FF00D1124E80DF91D908148E0FB
:1016C000949F900111243A8329837801280153E4DF
:1016D000450E511C350168016CE3C60ED11C21E09A
:1016E00081E2E80EF11CD2018C9190E0019653E06A
:1016F000880F991F5A95E1F7E981FA81E817F907F0
:10170000ECF4D3014D915C9189819A818370992782
:10171000841795076CF4F601408142274195698151
:101720007A81D7018D919C91298B0E944924298926
:10173000E981FA813196FA83E983D5CFD5018D917C
:101740009C91049709F0D6C2D8C08D819E810E94D9
:101750009623112321F08D819E810E948D1822E411
:10176000229D8001239D100D1124080D191D580183
:10177000F4E4AF0EB11CD5018D919C9111970197A6
:101780008D939C93C1010196289FF001299FF00D34
:101790001124E80DF91D908148E0949F90011124D7
:1017A0003A8329837801280153E4450E511C350101
:1017B00068016CE3C60ED11C21E081E2E80EF11C49
:1017C000D2018C9190E0019643E0880F991F4A95D1
:1017D000E1F7E981FA81E817F907ECF4D3014D91BB
:1017E0005C9189819A8183709927841795076CF49D
:1017F000F60140814227419569817A81D7018D9117
:101800009C91298B0E9449242989E981FA8131968A
:10181000FA83E983D5CFD5018D919C91892B09F06D
:1018200069C2CBC082E4829DF001839DF00D11243A
:10183000E80DF91D84A595A58230910509F461C0D4
:101840001CF497FDA8C107C08330910509F4B8C006
:10185000059709F0A0C191012F5F3F4F82E4829F5D
:10186000F001839FF00D1124E80DF91D2081F8E0AF
:101870002F9F20011124829D8001839D100D112432
:10188000080D191D580123E4A20EB11C68013CE3A8
:10189000C30ED11CA8014F5D5F4F7A01D5018C9119
:1018A00090E0019633E0880F991F3A95E1F74816CA
:1018B00059061CF5D6017C90642D772039F0F7018C
:1018C000808191810E94961A809505C0D7018D91E3
:1018D0009C910E94961A40FC02C04AEA01C045E56C
:1018E000482B71104095B201F701808191810E94CF
:1018F0004924FFEF4F1A5F0AD1CF82E090E0F80150
:10190000F7C18D819E810E949623112321F08D8144
:101910009E810E948D1891012F5F3F4F82E4829F2C
:10192000F001839FF00D1124E80DF91D2081F8E0EE
:101930002F9F20011124829D8001839D100D112471
:10194000080D191D580123E4A20EB11C68013CE3E7
:10195000C30ED11CA8014F5D5F4F7A01D5018C9158
:1019600090E0019623E0880F991F2A95E1F7481629
:1019700059061CF5D6017C90642D772039F0F701CB
:10198000808191810E94961A809505C0D7018D9122
:101990009C910E94961A40FC02C045E501C04AEAAB
:1019A000482B71104095B201F701808191810E940E
:1019B0004924FFEF4F1A5F0AD1CF83E090E09FCF19
:1019C0008D819E810E949623112309F4E6C08D81AA
:1019D0009E810E948D18E4C082E4829DF001839D67
:1019E000F00D1124E80DF91D84A595A5843091050D
:1019F00034F481309105D4F4892B21F0CCC00597C3
:101A000009F0C9C0E2EEF1E09F01255F822F11923B
:101A10008E13FDCF82E4829DF001839DF00D112491
:101A2000E80DF91D83E090E095A784A782E4829DEC
:101A30007001839DF00C1124E80CF91CF701EC5B9C
:101A4000FF4F11821082FA83E9830E94E2286B0122
:101A50007C010E94E2282B013C01A981BA81AD9052
:101A6000BC90BFEFAB1ABB0AE981FA81B182A082B8
:101A7000C701B6012BE030E040E050E00E94F028C2
:101A800070E09B012E513E4F6901D9010C91C301B9
:101A9000B20128E030E040E050E00E94F028802FC2
:101AA00090E0062E02C0959587950A94E2F780FD96
:101AB00031C081E090E001C0880F6A95EAF7082BF9
:101AC000F60100838D819E810E948D1822E4229D63
:101AD0007001239DF00C1124E80CF91CD701AC5BBC
:101AE000BF4F11961C921E92C1010196289FF001D2
:101AF000299FF00D1124E80DF91D0081000F000F42
:101B0000000F6701F3E4CF0ED11C21E2E20EF11CBD
:101B10002D0126C038E8A31633E1B3060CF495CFA7
:101B2000C8CFD701AD90BC90602FC5010E94961A16
:101B3000D201ED91FC91EE51FE4F4081111101C097
:101B400040954823B301C5010E944924F2018081D8
:101B5000918101968B30910591F0918380830F5F85
:101B6000F601808190E00196B3E0880F991FBA9545
:101B7000E1F7602E712C681679069CF203C0118281
:101B80001082EDCFE2EEF1E081918F3F09F0B2C01B
:101B90002D852E13F9CF111103C086E090E002C00D
:101BA00085E090E022E4229DF001239DF00D1124B8
:101BB000E80DF91D9DC0112319F182E4829D800179
:101BC000839D100D1124080D191DD8019C968D912F
:101BD0009C919D97843091050CF04DC28130910508
:101BE0000CF058C1892B09F415C182E4829DF001E3
:101BF000839DF00D1124E80DF91D85E090E078C07B
:101C000082E4829DF001839DF00D1124E80DF91D01
:101C100084A595A5843091050CF031C281309105E1
:101C20000CF079C2892B09F42DC282E4829DF00167
:101C3000839DF00D1124E80DF91D46E050E055A7F5
:101C400044A758C0412F60E002C0412F61E08D8160
:101C50009E810E946B214EC041E001C040E0612F97
:101C60008D819E810E94DB1845C041E001C040E0AB
:101C7000612F8D819E810E949D1A3CC0412F60E0A2
:101C800002C0412F61E08D819E810E947D1932C08A
:101C9000412F60E002C0412F61E08D819E810E9452
:101CA000532428C0212F41E002C0212F40E061E0F1
:101CB0008D819E810E94B1231DC0212F41E002C071
:101CC000212F40E060E0F4CF412F61E002C0412FBE
:101CD00060E08D819E810E94E01C0CC082E4829DA8
:101CE000F001839DF00D1124E80DF91D86E090E0D0
:101CF00095A784A782E4829DF001839DF00D1124B5
:101D0000E80DF91D83AD882339F081E024A535A5C0
:101D10002530310509F480E092E4929DF001939D15
:101D2000F00D1124E80DF91D83AF82E4829DF001CE
:101D3000839DF00D1124E80DF91D81E024A535A542
:101D40002630310511F40C94590680E00C945906A4
:101D500092E4929DF001939DF00D1124E80DF91D80
:101D6000DF01A75BBF4F2D913C912F5F3F4F42A9F1
:101D700053A9241735070CF481CAED5BFF4F20816E
:101D800048E0249F90011124295F3F4F0217130759
:101D90003CF4B8016F5F7F4F482FC7010E94492470
:101DA00082E4829D8001839D100D1124080D191D70
:101DB000D801DC964C9141957801B4E4EB0EF11C0E
:101DC000F70160817181D80191968D919C919297D4
:101DD0000E944924F701208131812F5F3F4F3183D9
:101DE00020833197808190E00196A3E0880F991FAE
:101DF000AA95E1F72817390709F07CCF369680813C
:101E000091819C012150310931832083D7018D9329
:101E10009C9370CF8D819E810E949D05D801A95B06
:101E2000BF4F8D919C911197F801E75BFF4F208187
:101E300031818217930724F42D933C9391838083FF
:101E400082E4829DF001839DF00D1124E80DF91DBF
:101E5000DF01A55ABF4F8D919C91892B09F4EDCEDE
:101E6000DF01AA5BBF4F1C929F012C5B3F4FCF014C
:101E70008D5B9F4FDC018C9190E00196A3E0880F71
:101E8000991FAA95E1F7D9018D939C9383E090E087
:101E900095A784A78D819E810E948D1822E4229DA2
:101EA000C001239D900D1124AC01480D591D8A01DC
:101EB0000C5B1F4FF8018081918101979183808392
:101EC000512CCA01815A9F4F9A8389831E830D83A7
:101ED000DA01AD5BBF4FB887AF83C1010196289F80
:101EE0003001299F700C1124680C791C6A01BCE335
:101EF000CB0ED11C32967F019A01255A3F4F5901D2
:101F00002A533109388B2F87A981BA814C915416F5
:101F100008F048C0852D90E0AD81BE816D917C9127
:101F2000680F791FEF81F885208130E02F5F3F4FE8
:101F3000E3E0220F331FEA95E1F76217730784F598
:101F4000D3012C91B8E02B9F9001112462177307E5
:101F50003CF1F6012081222381F0D7012C9124034A
:101F6000F00111248E0F9F1FD501ED91FC91E80F18
:101F7000F91FE4914E2F40950DC0F70120812403F5
:101F8000F00111248E0F9F1FD501ED91FC91E80FF8
:101F9000F91F4491EF85F889808191810E9449243D
:101FA0005394B2CFF801A080B180F1E0AF1AB1082C
:101FB00082E4829D9001839D300D11243901680CCB
:101FC000791C8301075B1F4F73012CE3E20EF11CA8
:101FD000630131E2C30ED11CD8018D919C91A816EA
:101FE000B9066CF0D7014C914195B501F60180819D
:101FF00091810E944924F1E0AF1AB108EDCFF301BD
:10200000EA5BFF4F80818F5F8083082E000C990B65
:10201000D301AF59BF4F2C9130E0821793070CF0DA
:10202000108291012F5F3F4F92E4929FF001939FA6
:10203000F00D1124E80DF91D8081929DF001939D12
:10204000F00D1124E80DF91DAF014C5B5F4FB8E0B6
:102050008B9FC00111249F01215A3F4FD9012C9120
:10206000821B91090197DA012D913C9128173907BC
:1020700009F040CEC2CD059709F40CCFB6CD059737
:1020800009F0D3CD8D819E810E949D0582E4829DC1
:10209000F001839DF00D1124E80DF91DDF01A95B0E
:1020A000BF4F8D919C911197E75BFF4F208131814C
:1020B0008217930724F42D933C939183808382E4C9
:1020C000829DF001839DF00D1124E80DF91DDF01C3
:1020D000A35ABF4F2D913C91232B09F4CFC89101F6
:1020E0002F5F3F4F829FD001839FB00D1124A80D19
:1020F000B91D8C91DF01AC5BBF4F38E0839FC001FD
:102100001124019711969C938E9312961C9283E052
:1021100090E095A784A78D819E810E948D1822E46E
:10212000229DC001239D900D1124AC01480D591D25
:102130008A010C5B1F4FD8018D919C9111970196DC
:1021400011969C938E93512CFA01E05AFF4FFA831B
:10215000E9831E830D83CA018D5B9F4F98878F8310
:10216000C1010196289F3001299F700C1124680C31
:10217000791C6A019CE3C90ED11C12967D0133972C
:102180005F019A012F5D3F4F388B2F87A981BA815C
:102190004C91541608F048C0852D90E0AD81BE8169
:1021A0006D917C91681B790BEF81F885208130E07F
:1021B0002F5F3F4F53E0220F331F5A95E1F762170D
:1021C000730784F5D3012C91B8E02B9F9001112463
:1021D000621773073CF1F6012081222381F0D701B9
:1021E0002C912403F00111248E0F9F1FD501ED9136
:1021F000FC91E80FF91FE4914E2F40950DC0F701B7
:1022000020812403F00111248E0F9F1FD501ED9131
:10221000FC91E80FF91F4491EF85F8898081918145
:102220000E9449245394B2CFF801A080B180A41A2F
:10223000B10882E4829D9001839D300D1124390103
:10224000680C791C8301075B1F4F7301FCE3EF0EE1
:10225000F11C630121E2C20ED11CD8018D919C9129
:10226000A816B9066CF0D7014C914195B501F6015D
:10227000808191810E944924F1E0AF1AB108EDCF2D
:10228000F301EA5BFF4F80818F5F8083082E000C93
:10229000990BD301AE59BF4F2C9130E082179307B1
:1022A0000CF0108282E4829DF001839DF00D1124D8
:1022B000E80DF91DAF014C5B5F4FCF018D5B9F4F68
:1022C000DC018C91B8E08B9FC001112407969F011F
:1022D000205A3F4FD9012C91820F911D0196DA01AE
:1022E0002D913C912817390709F004CD0C943E0933
:1022F00041E050E06AE070E089859A850E94E4043C
:102300008C8161960FB6F894DEBF0FBECDBFDF9112
:10231000CF911F910F91FF90EF90DF90CF90BF90E2
:10232000AF909F908F907F906F905F904F903F9075
:102330002F9008951F93CF93DF93FC01A081B1816B
:1023400014A958968C91180F81A9811770F4EF0188
:1023500082A993A9009711F00E94EE2919AB812F51
:1023600090E00E9459299BAB8AABDF91CF911F91DE
:102370000895FC01538D448D252F30E0842F90E08B
:10238000821B930B541710F0CF9608950197089570
:10239000FC01918D828D981761F0828DDF01A80F6D
:1023A000B11D5D968C91928D9F5F9F73928F90E08F
:1023B00008958FEF9FEF0895FC01918D828D9817FE
:1023C00031F0828DE80FF11D858D90E008958FEF3B
:1023D0009FEF0895FC01918D228D892F90E0805C04
:1023E0009F4F821B91098F739927089580E090E099
:1023F000892B29F00E94FC2281110C940000089581
:102400001F920F920FB60F9211242F938F939F93C9
:10241000EF93FF93E0910902F0910A028081E0912D
:102420000F02F091100282FD12C090818091120281
:102430008F5F8F7320911302821751F0E091120287
:10244000F0E0E750FE4F958F8093120201C080812B
:10245000FF91EF919F918F912F910F900FBE0F9051
:102460001F901895FC01848DDF01A80FB11DA35AA0
:10247000BF4F2C91848D90E001968F739927848FA4
:10248000A689B7892C93A089B1898C9180648C939B
:10249000938D848D981306C00288F389E02D808186
:1024A0008F7D80830895EF92FF920F931F93CF93B8
:1024B000DF93EC0181E0888F9B8D8C8D981305C094
:1024C000E889F989808185FD24C0F62E0B8D10E006
:1024D0000F5F1F4F0F731127E02E8C8DE8120CC079
:1024E0000FB607FCFACFE889F989808185FFF5CF1F
:1024F000CE010E943212F1CF8B8DFE01E80FF11D4B
:10250000E35AFF4FF0820B8FEA89FB89808180625A
:1025100007C0EE89FF896083E889F989808180643A
:10252000808381E090E0DF91CF911F910F91FF9028
:10253000EF900895CF93DF93EC01888D8823C9F045
:10254000EA89FB89808185FD05C0A889B9898C91BC
:1025500086FD0FC00FB607FCF5CF808185FFF2CF57
:10256000A889B9898C9185FFEDCFCE010E943212E6
:10257000E7CFDF91CF91089590E0FC01E054FF4F49
:102580003491FC01EF54F94F2491FC01E356F94FCB
:10259000E491EE2309F43BC0332339F1333091F059
:1025A00038F43130A9F0323001F584B58F7D12C096
:1025B000373091F03830A1F03430B9F48091800098
:1025C0008F7D03C0809180008F77809380000DC045
:1025D00084B58F7784BD09C08091B0008F7703C028
:1025E0008091B0008F7D8093B000F0E0EE0FFF1F70
:1025F000E757F94FA591B4918FB7F894EC91611119
:1026000003C020952E2301C02E2B2C938FBF08953D
:102610001F920F920FB60F9211242F933F938F9317
:102620009F93AF93BF938091ED019091EE01A091A4
:10263000EF01B091F0013091F50123E0230F2D3728
:1026400020F40196A11DB11D05C026E8230F0296B6
:10265000A11DB11D2093F5018093ED019093EE0132
:10266000A093EF01B093F0018091F1019091F201FC
:10267000A091F301B091F4010196A11DB11D8093C9
:10268000F1019093F201A093F301B093F401BF9193
:10269000AF919F918F913F912F910F900FBE0F900F
:1026A0001F901895CF9358E07FEF4617D0F0A9E020
:1026B0006A9F90011124DC011A96ED91FC911B9701
:1026C000E20FF31FDF01C52F1D92CA95E9F7DC0168
:1026D0001A96ED91FC911B97E20FF31F70876F5FC5
:1026E000E4CFFC012289222319F0CF910C943F20E2
:1026F000CF9108950F931F93CF93DF93DC015696EC
:102700001C92569788E057968C93579758961C9230
:10271000589759961C9259978FEF5A968C935A97BF
:102720005C961C921E925B9754962D913C91559706
:102730002115310509F443C0F90184918634F9F477
:102740003196E491E130A9F4F9013296E491599679
:10275000EC935997F9013396E4915A96EC935A9772
:10276000F9013496E4915796EC93579785E090E001
:1027700002C082E090E05C969C938E935B975B96A0
:102780000D911C915C9759964C91599750E05A962F
:10279000CC915A97D0E060E0C417D50770F0F901EA
:1027A000E00FF11F8491681708F4682F90E00196FC
:1027B000080F191F4F5F5F4FEFCF58966C93DF9153
:1027C000CF911F910F9108958F929F92AF92BF92D8
:1027D000CF92DF92EF92FF920F931F93CF93DF93ED
:1027E000EC01162F042F89E0689F40011124EA8430
:1027F000FB845701A80CB91C8C81C42ED12C8823D2
:1028000031F087E090E07C01EC18FD0801C0760112
:102810008B81882329F0622FCE010E94E71E01C020
:10282000822FF501EE0DFF1D8083EA85FB85E80D03
:10283000F91D80859C81992381F027E030E02C19D7
:102840003D0941E050E060E070E004C0440F551FD6
:10285000661F771F2A95D2F70BC041E050E060E079
:1028600070E004C0440F551F661F771F0A95D2F70A
:10287000482B40878A89882321F0612FCE010E944E
:10288000F91E81E0DF91CF911F910F91FF90EF90A2
:10289000DF90CF90BF90AF909F908F9008954F9210
:1028A0005F926F927F929F92AF92BF92CF92DF9290
:1028B000EF92FF920F931F93CF93DF93DC0189E098
:1028C000689F8001112487E090E0841B9109C12C4E
:1028D000D12C7601C3942601370104C0440C551C49
:1028E000661C771C8A95D2F7942C04C0CC0CDD1C96
:1028F000EE1CFF1C4A95D2F77C2D342D30959C2D73
:102900009095C7E0D0E047E0A42EB12CE22EF12C48
:10291000F501EC1BFD0B67010E2E02C0D594C79488
:102920000A94E2F714962C9114971A964D915C91A3
:102930001B9713968C911397C0FE16C0222311F09B
:102940006E0101C06F01400F511F2111FE01E40F04
:10295000F51F2081882311F0892D01C0872FFA01EE
:10296000EC0DFD1D822B15C0222311F06E0101C05C
:102970006F01400F511F2111FE01E40FF51F20814F
:10298000882311F0832F01C0892FFA01EC0DFD1D62
:1029900082238083219708F0BBCF1A968D919C915A
:1029A0001B97FC01E00FF11F8FEF808752968C91EF
:1029B0005297882319F0CD010E94F91E81E0DF9122
:1029C000CF911F910F91FF90EF90DF90CF90BF902C
:1029D000AF909F907F906F905F904F900895DC0133
:1029E00012963C9112971996EC91A62FB0E0F0E068
:1029F000332339F0AE17BF075CF4483048F40C9429
:102A0000E413AE17BF0724F4483010F40C944F14AD
:102A100080E00895FC01A38129E0629FB0011124A8
:102A200022853385848150E0620F731FAA2379F0D9
:102A3000882331F087E090E09C01241B350BA9012D
:102A4000DB01A40FB51F6C91CF010C94E71E882306
:102A500031F087E090E09C01241B350BA901FB01BC
:102A6000E40FF51F808108958F929F92AF92BF92DD
:102A7000CF92DF92FF920F931F93CF93DF93CDB747
:102A8000DEB729970FB6F894DEBF0FBECDBF483032
:102A9000510508F0DBC1FA01F62E8C01E05BFF4F17
:102AA0000C945329DC0112962C91B9E06B9FC00164
:102AB00011242223D9F020E030E0F8014381028480
:102AC000F385E02DE80FF91FE20FF31F442329F0EF
:102AD000408150E05595479502C04081440F4083A6
:102AE0002F5F3F4F2830310541F7A2C127E030E08A
:102AF000D8011A96ED91FC911B97E80FF91FE20F90
:102B0000F31F408141832150310990F791C1FC01AD
:102B10008281F9E06F9F900111248823E9F080E021
:102B200090E0D80113964C9113971A96ED91FC9171
:102B30001B97E20FF31FE80FF91F442319F04081A0
:102B4000440F04C0408150E055954795408301965D
:102B50008830910531F76CC180E090E0F801428542
:102B60005385420F531FBC010196FA01E80FF91F6C
:102B7000E081DA01A60FB71FEC938730910571F75A
:102B800057C1DC0153968C9153971296DC901297A3
:102B90008823B9F0DD2069F019968C9190E0262FFA
:102BA00030E02817390754F440E0C8010E940A15A4
:102BB00006C040E0C8010E94741E01C080E0898305
:102BC00001C01982DD2079F020E0DD24D394D20EFB
:102BD0004D2D6F2DC8010E945C1F2D2D2730A9F7A8
:102BE000298147E041C0B9E0FB9EA001112487E0A4
:102BF00090E0D8011A96ED91FC911B97E40FF51F18
:102C0000E80FF91F2081220F2083019790F7E8CF6A
:102C1000FC018389D2808823B1F0DD2061F08185B9
:102C200090E0262F30E02817390754F447E0C80118
:102C30000E940A1506C047E0C8010E94741E01C028
:102C400080E0898301C01982DD2099F028E0DD242D
:102C5000DA94D20E4D2D6F2DC8010E945C1F2D2DD0
:102C6000D110F5CF298140E06F2DC8010E94EF14EB
:102C7000DFC0F9E0FF9EA001112420E030E0D80180
:102C80001A96ED91FC911B97E40FF51FE20FF31FCD
:102C9000808190E09595879580832F5F3F4F283006
:102CA000310569F7DFCFFC018281F9E06F9F5001A8
:102CB00011248823D1F0812C912CD8011A96CD9023
:102CC000DC901B97CA0CDB1CC80CD91CF601608178
:102CD000C8010E94E71ED6018C93BFEF8B1A9B0A96
:102CE000E8E08E16910449F7A3C020E030E067E0E9
:102CF00070E0D8011A968D919C911B978A0D9B1DAF
:102D0000FC01E20FF31FD080AB01421B530B840F79
:102D1000951FDC018C918083F801828593858A0D53
:102D20009B1DFC01E40FF51FD0822F5F3F4F243025
:102D30003105F9F67DC0DC0112968C91B9E06B9FEC
:102D400050011124882321F120E030E067E070E099
:102D5000F801828593858A0D9B1DFC01E20FF31F0C
:102D6000D080AB01421B530B840F951FDC018C916B
:102D70008083F801828593858A0D9B1DFC01E40FF9
:102D8000F51FD0822F5F3F4F2430310509F750C027
:102D9000812C912CD8011A96CD90DC901B97CA0CEF
:102DA000DB1CC80CD91CF6016081C8010E94E71E1B
:102DB000D6018C93BFEF8B1A9B0AE8E08E16910424
:102DC00049F736C09E012F5F3F4F5901690127E047
:102DD000422F6F2DC80129870E94D41ED6018D93E2
:102DE0006D0129852150A0F7D12CF50121915F01BA
:102DF0004D2D6F2DC8010E94EF14D394F8E0DF121F
:102E0000F4CF16C029E0629FA001112480E090E079
:102E1000D8011A96ED91FC911B97E40FF51FE80F6E
:102E2000F91F20812095208301968830910581F734
:102E3000D8011A96ED91FC911B97B9E0FB9EE00D2D
:102E4000F11D11248FEF808781E001C080E0299679
:102E50000FB6F894DEBF0FBECDBFDF91CF911F91AB
:102E60000F91FF90DF90CF90BF90AF909F908F9089
:102E700008954F925F926F927F928F929F92AF923E
:102E8000BF92CF92DF92EF92FF920F931F93CF9357
:102E9000DF93CDB7DEB729970FB6F894DEBF0FBE2C
:102EA000CDBF8C01E62EF42E6901DC0152965C90B8
:102EB0005297461708F417C152961C9228303105D4
:102EC00008F011C1F901E85AFF4F0C94532950E062
:102ED00070E03A01661A770A77FE03C0EFEF6E1AC8
:102EE0007E0A75946794812C29E0922EA5C0DC019E
:102EF00053968C91882351F0642F660F660F660FEE
:102F0000695FC8010E94961A982E14C0F801A08823
:102F1000B188A114B10469F0642F660F660F660FC3
:102F2000695FC8010E94961A482FB6018F2DF501DE
:102F30000995912CAE2CB12C8F2D0F2C000C990BD8
:102F40008A159B05ACF0A6016F2DC8010E943415AF
:102F500088248A948F0C47E0682DC8010E94D41EF3
:102F6000282F40E06F2DC8010E94591EF82CE4CF95
:102F7000D8011E96ED91FC911F97309741F0539622
:102F80008C91811104C0B6018E2D0995982EB50142
:102F900083E0660F771F8A95E1F7492D49C0FC0150
:102FA0008389882341F0660F660F660FC8010E946F
:102FB000961AB82E11C0A088B188A114B10459F096
:102FC000660F660F660FC8010E94961A482FB60159
:102FD0008E2DF5010995B12CA6016E2DC8010E9418
:102FE0003415AA24A394AE0C40E06A2DC8010E94B7
:102FF000D41E282F47E06E2DC8010E94591EEA2CCE
:10300000FA1450F7D8011E96ED91FC911F97309756
:1030100041F053968C91811104C0B6018F2D099512
:10302000B82EB8E0FB9EB0011124695F7F4F4B2D95
:10303000C8010E9449244EC0882D90E0861597054E
:10304000C4F5F80122853385FB01E80FF91F9E9E28
:1030500050019F9EB00C1124F901EA0DFB1DDE0109
:103060001196492C01900D924A94E1F7FA01E81B60
:10307000F90B9E9EC0019F9E900D1124F801A28520
:10308000B385AA0DBB1DF901E80FF91F292D019089
:103090000D922A95E1F7F801A285B385A80FB91F13
:1030A000FE013196892D01900D928A95E1F7839466
:1030B000C3CFA6016E2DC8010E943415E394FE14FF
:1030C000C0F708C0A6016E2DC8010E943415E39414
:1030D000FE14C0F7D80152965C92552031F0C80119
:1030E0000E943F2002C080E001C081E029960FB617
:1030F000F894DEBF0FBECDBFDF91CF911F910F912E
:10310000FF90EF90DF90CF90BF90AF909F908F9007
:103110007F906F905F904F900895EF92FF920F9382
:103120001F93CF93DF93EC010E949623EF84F888DE
:10313000CE010E9434058DAB1FAA1EAA8701898982
:103140009A890817190784F18DA990E02EA93FA943
:103150002817390731F4CE010E94F1048DAB1FAA64
:103160001EAA4B8D8EA99FA92AA93BA9442359F0D9
:10317000AC014F5F5F4F5FAB4EABF901E80FF91F3A
:103180004081409509C0AC014F5F5F4F5FAB4EABD4
:10319000F901E80FF91F4081B801888199810E94E7
:1031A000492401501109CBCFDF91CF911F910F918D
:1031B000FF90EF900895FF920F931F93CF93DF93AB
:1031C000EC01F42E8B859C85662309F445C0843080
:1031D00091056CF48130910564F4892BD1F5CE0111
:1031E0000E949D0583E090E09C878B8702C0059735
:1031F00081F5CE010E948D182BA13CA188A599A52F
:103200002817390731F10EA11FA18DA1082E000C3E
:10321000990B48A559A5480F591F2BA13CA104178C
:10322000150709F45BC0F11004C00217130721F45D
:103230000AC00217130739F44B8D4195B8018881F4
:1032400099810E9449248DA1080F111D87FD1A95AF
:10325000DCCF85E090E049C08430910534F48130C2
:10326000910564F4892B19F03EC00597E1F5CE0174
:103270000E949D0583E090E09C878B87CE010E9491
:103280008D180EA11FA148A559A58DA1082E000CCF
:10329000990BBA01680F791F2BA13CA106171707DC
:1032A000B1F0F11004C00217130721F40AC002178D
:1032B000130739F44B8D4195B801888199810E949B
:1032C00049248DA1080F111D87FD1A95DCCF241705
:1032D000350724F446E050E05C874B87820F931F4C
:1032E0009CA38BA304C086E090E09C878B87DF9132
:1032F000CF911F910F91FF900895EF92FF920F933E
:103300001F93CF93DF93EC01062F8B859C8544237D
:1033100009F47BC097FD76C0833091051CF00397BC
:1033200061F170C06F85788989899A899B01281B12
:10333000390BC90137FD01969595879501969CA398
:103340008BA30023B9F04B8D11E041274195681BF9
:10335000790B888199810E9449244B8D41274195A1
:1033600069897A898BA19CA1680F791F88819981CD
:103370000E94492483E090E0D0C08BA19CA197FDDE
:1033800041C0CE010E948D18E12CF12C6BA17CA1D3
:10339000E616F706C4F44B8D419569897A896E0D5E
:1033A0007F1D888199810E9449244B8D41956F85AD
:1033B00078896E197F09888199810E9449243FEF9D
:1033C000E31AF30AE3CF615071097CA36BA30023D6
:1033D00009F4A5C077FDA3C04B8D11E041274195AD
:1033E00089899A89680F791F888199810E94492467
:1033F0004B8D412741956F8578898BA19CA1681BD6
:10340000790B7FC085E090E088C08330910549F159
:1034100024F401970CF47FC003C0059709F07BC02A
:10342000CE010E949623CE010E948D181CA21BA2E1
:10343000002399F04B8D11E0412741956F857889E4
:10344000888199810E9449244B8D41274195698942
:103450007A89888199810E94492483E090E09C8741
:103460008B872BA13CA16F85788989899A89AB01CB
:10347000481B590BCA0157FD0196959587958217F0
:1034800093070CF448C04B8D4195621B730B8881E8
:1034900099810E9449244B8D419569897A898BA134
:1034A0009CA1680F791F888199810E9449242BA1D2
:1034B0003CA12F5F3F4F3CA32BA3002381F16F85DD
:1034C000788989899A89AB01481B590BCA0157FD34
:1034D000019695958795821793070CF14B8D11E016
:1034E00041274195621B730B888199810E94492471
:1034F0004B8D4127419569897A898BA19CA1680FE1
:10350000791F88819981DF91CF911F910F91FF9051
:10351000EF900C94492486E090E09C878B87DF91A4
:10352000CF911F910F91FF90EF900895462F477014
:103530006695669566950C94D41ECF92DF92EF92B5
:10354000FF921F93CF93DF93EC01D42E8B859C8544
:10355000662309F458C08430910584F481309105C4
:1035600084F4892B09F04CC0CE010E949D051CA259
:103570001BA283E090E09C878B8703C0059709F02E
:103580003FC0CE010E948D182BA13CA128303105EF
:10359000B9F1EEA0FFA081E090E001C0880F2A956C
:1035A000EAF7182FDD20B9F0109515C08B8DC88073
:1035B000D9806E2D8823D1F0C6010E94961A412F22
:1035C0004095482BB701C6010E9449248DA1E80E01
:1035D000F11C87FDFA942DA188A599A5820F911D54
:1035E00027FD9A95E816F90609F706C0C6010E945C
:1035F000961A482F4123E6CF8BA19CA101965DC06E
:1036000085E090E05FC08430910534F4813091050D
:103610008CF4892B21F054C0059709F051C0CE01DC
:103620000E949D0587E090E09CA38BA383E090E03F
:103630009C878B87CE010E948D188BA19CA197FD42
:1036400006C011E001C0110F8A95EAF701C010E031
:10365000EEA0FFA0DD20B9F0109515C08B8DC880BD
:10366000D9806E2D8823D1F0C6010E94961A412F71
:103670004095482BB701C6010E9449248DA1E80E50
:10368000F11C87FDFA942DA188A599A5820F911DA3
:1036900027FD9A95E816F90609F706C0C6010E94AB
:1036A000961A482F4123E6CF8BA19CA197FF04C017
:1036B00026E030E03C872B8701979CA38BA304C0B6
:1036C00086E090E09C878B87DF91CF911F91FF90E0
:1036D000EF90DF90CF9008958F929F92AF92BF921C
:1036E000CF92DF92EF92FF920F931F93CF93DF93CE
:1036F000EC01D62E8B859C85442309F4B7C082301B
:103700009105B9F01CF497FF08C0ADC08330910556
:10371000E9F0049709F481C0A6C0CE010E943405E7
:103720008DAB882309F43BC11FAA1EAA83E090E059
:1037300038C1CE010E94F1048DAB882309F493C0F7
:103740001FAA1EAA83E090E09C878B8721E02D258D
:1037500030E04AA169A1888199810E9439174B8D77
:103760002AA93BA98EA99FA9442359F0AC014F5F18
:103770005F4F5FAB4EABF901E80FF91F40814095F9
:1037800009C0AC014F5F5F4F5FAB4EABF901E80F73
:10379000F91F4081DD2031F069A128E0629FB0016E
:1037A000112407C06AA138E0639FB0011124695F4A
:1037B0007F4F888199810E9449248DA990E02EA98C
:1037C0003FA92817390709F0EEC08EA5811103C063
:1037D00082E090E0E6C02F853889DD2071F08D858C
:1037E0009E85A901481B590BCA01019629A158E0E1
:1037F000259F80199109112408C08AA148E0849F5F
:10380000C00111240796821B930B9FAB8EAB181639
:1038100019064CF584E090E0C4C021E0262730E092
:103820004AA169A1888199810E9439174B8D4195E0
:10383000DD2031F069A158E0659FB001112407C077
:103840006AA188E0689FB0011124695F7F4F888179
:1038500099810E9449248EA99FA901979FAB8EABA5
:10386000892B09F0A0C085E090E09BC084309105D1
:1038700039F0059709F093C084E090E09C878B872E
:1038800021E02D2530E04AA169A1888199810E941B
:1038900039174B8D4195DD2031F069A128E0629FF9
:1038A000B001112407C06AA138E0639FB001112460
:1038B000695F7F4F888199810E9449240AA110E0A5
:1038C00089A190E07801E81AF90A4FEFE41AF40AA6
:1038D00063E0EE0CFF1C6A95E1F72C8D3D8D211500
:1038E000310521F02E153F0508F479010F5F1F4FB8
:1038F000DD2041F16C0143E0CC0CDD1C4A95E1F781
:1039000053E0000F111F5A95E1F7560145018C183D
:103910009D08A016B1060CF03FC06A2D88819981E0
:103920000E94961A90E02B8D211103C020E030E018
:1039300002C02FEF30E08217930771F55FEFA51AF1
:10394000B50AE4CF23E0000F111F2A95E1F70150DB
:1039500011096C0133E0CC0CDD1C3A95E1F7812CA8
:10396000912C0C151D05C4F0602F888199810E944F
:10397000961A282F30E08B8D811103C080E090E0F3
:1039800002C08FEF90E02817390731F40150110978
:103990008FEF881A980AE5CF8E149F0420F086E0F6
:1039A00090E09C878B87DF91CF911F910F91FF90C3
:1039B000EF90DF90CF90BF90AF909F908F90089541
:1039C000CF92DF92EF92FF920F931F93CF93DF93EB
:1039D000EC01162F8B859C85442309F45DC084304F
:1039E000910534F481309105B4F4892B21F051C054
:1039F000059789F04EC0CE010E949D05111103C0AC
:103A000081E090E002C08FEF90E09CA38BA383E065
:103A100090E09C878B87CE010E948D182BA13CA142
:103A2000111103C08FEF90E002C080E090E02817F2
:103A3000390779F1EEA0FFA02DA188A599A5820FE5
:103A4000911D27FD9A95E816F906E9F00B8DC880BF
:103A5000D9806E2DC601002321F00E94961A809510
:103A600002C00E94961A4BA11111409548230111E2
:103A70004095B701C6010E9449248DA1E80EF11CB2
:103A800087FDFA94D9CF8BA19CA1112309F459C0C9
:103A90005EC085E090E062C08430910534F48130EE
:103AA0009105B4F4892B21F057C0059709F054C053
:103AB000CE010E949D05111103C08FEF90E002C05E
:103AC00081E090E09CA38BA383E090E09C878B87B0
:103AD000CE010E948D18EEA0FFA02DA188A599A56A
:103AE000820F911D27FD9A95E816F906E9F00B8DD6
:103AF000C880D9806E2DC601002321F00E94961A3D
:103B0000809502C00E94961A4BA11111409548233E
:103B100001114095B701C6010E9449248DA1E80E0C
:103B2000F11C87FDFA94D9CF8BA19CA1112369F0D8
:103B30008F3F910531F426E030E03C872B8711233D
:103B400031F0880F991F816004C00097A1F395950B
:103B500087959CA38BA304C086E090E09C878B870D
:103B6000DF91CF911F910F91FF90EF90DF90CF9059
:103B70000895BF92CF92DF92EF92FF920F931F931F
:103B8000CF93DF93EC0188858823B9F08091F6010B
:103B9000882379F08FB7F8949091F601913039F439
:103BA0009DB39093F7019DB39DBB8FBF02C08093DF
:103BB000F70180E58CBD81E08DBD60E08F810E94C2
:103BC000BC128885811102C0F12C39C040E0242F3D
:103BD00030E0898590E0880F991F2817390770F425
:103BE0008C859D85FC01E20FF31F80818EBD000056
:103BF0000DB407FEFDCF8EB54F5FE9CF61E08F8139
:103C00000E94BC128885882309F43EC02DC0B601ED
:103C1000002E02C0759567950A94E2F761707727C8
:103C20008B2D0E94BC1261E08E2D0E94BC1260E0C0
:103C30008E2D0E94BC120150110948F7F3942F2DCC
:103C400030E0898590E0880F991F28173907B0F672
:103C50008C859D85FC01E20FF31FC080EE80BD8046
:103C600007E010E0D12CD3CF8091F601882361F0DA
:103C70009FB7F8942091F6018091F701213019F453
:103C80008DBB9FBF01C08FBFDF91CF911F910F915F
:103C9000FF90EF90DF90CF90BF900895FC01418599
:103CA00050E0440F551F60E070E0848595850C94CA
:103CB000942ADC0112963C9112971996EC91A62F4A
:103CC000B0E0F0E0332339F0AE17BF075CF44830C2
:103CD00048F40C944F14AE17BF0724F4483010F486
:103CE0000C94E41380E00895CF92DF92EF92FF925C
:103CF0000F931F93CF93DF93FC018381882351F0AF
:103D000087E090E0841B910991E001C0990F8A95AA
:103D1000EAF706C091E0042E01C0990F0A94EAF771
:103D2000218530E0A62FB0E0A217B3079CF54830FC
:103D300088F522853385A90189E0689F400D511DD2
:103D40001124BA01E48140E050E080E0A7E0B0E057
:103D5000C12CD12C7601C394EE2321F09D01241BAC
:103D6000350B01C09A01EB01C20FD31F2881292313
:103D700059F097018601042E04C0000F111F221F65
:103D8000331F0A94D2F7802B4F5F5F4F48305105A5
:103D900019F701C080E0DF91CF911F910F91FF9043
:103DA000EF90DF90CF900895FC01228121110C94B7
:103DB000741EFC01218530E0E62FF0E0E217F307E6
:103DC00024F4483010F40C940A1580E008956295AC
:103DD000962F937384E0989F900111246C7C6695D4
:103DE0006695262B822F8575880F2A7A2695822B39
:103DF0000895CF92DF92EF92FF920F931F93CF938C
:103E0000DF93E62EF12CFC01218530E0E216F3066B
:103E10000CF049C0EC01F9E06F9F80011124C12C26
:103E2000D12CEA85FB85E00FF11F808590E00C2CFA
:103E300002C0959587950A94E2F780FF27C0CE01CE
:103E40000E944E1EE985F0E03197EE19FF09EE0F52
:103E5000FF1F8C859D85E80FF91F81E08C0D808305
:103E6000EA85FB85E00FF11FEC0DFD1D8081E985E2
:103E7000F0E03197EE19FF09EE0FFF1F2C853D850D
:103E8000E20FF31F8183CE010E94B91D8FEFC81A84
:103E9000D80AE8E0CE16D10421F66A857B85FB01BD
:103EA000E00FF11F1086DF91CF911F910F91FF90CE
:103EB000EF90DF90CF900895AF92BF92CF92DF92B4
:103EC000EF92FF920F931F93CF93DF93FC018281B8
:103ED000A185C62FD0E0882309F45DC0B0E0CA17E1
:103EE000DB070CF0C0C0483008F0BDC0283008F037
:103EF000BAC03481A22FB0E0332329F087E090E0EC
:103F00008A1B9B0B01C0CD0159E0659F5001112414
:103F1000E284F384EA0CFB1C50E0332331F007E029
:103F200010E0E801C41BD50BAE014E0D5F1DEA0188
:103F300038818E0D9F1DEC01388382859385E501C4
:103F4000C80FD91F38858481882381F047E050E06D
:103F50004A1B5B0B81E090E0A0E0B0E004C0880F5A
:103F6000991FAA1FBB1F4A95D2F70BC081E090E0B2
:103F7000A0E0B0E004C0880F991FAA1FBB1F2A95BC
:103F8000D2F7832B88878289882319F0CF010E947A
:103F9000F91E81E069C09381992359F007E010E090
:103FA0007801E41AF10831E001C0330FEA94EAF72E
:103FB00006C031E0042E01C0330F0A94EAF7B0E0E6
:103FC000CA17DB070CF050C0483008F04DC028304D
:103FD00008F04AC0D9E06D9FA0011124C7E0D0E0ED
:103FE000C21BD10981E090E0A0E0B0E06C017D014E
:103FF00004C0CC0CDD1CEE1CFF1CCA95D2F77C2D36
:1040000004C0880F991FAA1FBB1F2A95D2F7182F2B
:10401000C0948095C0E0D0E0A285B385A40FB51F01
:10402000AC0FBD1F9C91F92EF3222381FF2039F0A4
:10403000222311F0272F01C0212F922B06C022230B
:1040400011F02C2D01C0282F92239C932196C8306B
:10405000D10511F782859385DC01A40FB51F8FEF81
:1040600018968C9390CF80E0DF91CF911F910F91A4
:10407000FF90EF90DF90CF90BF90AF900895DF92C8
:10408000EF92FF920F931F93CF93DF93EC01E12CFC
:10409000F12C01E010E0CE010E944E1EC8010E2C52
:1040A00002C0880F991F0A94E2F760E0D12C71E0FA
:1040B0007E0D298530E0462F50E04217530784F5E6
:1040C000E9E06E9FD0011124EA85FB85EA0FFB1F12
:1040D000E085F0E0E823F923EF2B01F121503109CD
:1040E000241B350B220F331FEC85FD85E20FF31FD8
:1040F00070832A853B85A20FB31FAE0DBF1D2C9187
:10410000E985F0E03197E41BF50BEE0FFF1F4C85BE
:104110005D85E40FF51F2183DD24D3946F5FC9CF44
:10412000DD2019F0CE010E94B91D8FEFE81AF80AC0
:1041300098E0E916F10409F0AECF80E0298530E07F
:10414000482F50E04217530754F4EA85FB8599E065
:10415000899FE00DF11D112410868F5FEFCFDF9155
:10416000CF911F910F91FF90EF90DF900895AF9244
:10417000BF92CF92DF92EF92FF920F931F93CF9354
:10418000DF9300D0CDB7DEB76C017901461708F494
:1041900091C02A3031050CF06EC0C6014A83698394
:1041A0000E944E1E69814A81A2E0EA16F10401F1E3
:1041B00044F4E114F10471F0E1E0EE16F10489F049
:1041C00052C0F3E0EF16F10411F184E0E816F104B7
:1041D000B1F049C091E00115110509F090E08CE0C3
:1041E0001CC0902F083011050CF097E08BE015C033
:1041F000902F003111050CF09FE08AE00EC091E095
:104200000115110509F490E0919589E006C091E04F
:104210000115110509F490E08FE0262F30E0D6015A
:104220001996EC911997F0E03197E21BF30B5F01BF
:10423000AA0CBB1C1C960D90BC91A02DF501EA0F99
:10424000FB1F8083D6011996EC911997F0E0319706
:10425000E21BF30BEE0FFF1F1C962D913C911D9757
:10426000E20FF31F91836F5F461708F09DCFC601E1
:104270000E94B91D21C02A30310521F02B303105B3
:1042800089F01AC021E00130110509F020E0D601C3
:1042900052962C93222381F0C60129830E943F204D
:1042A00029810BC081E00130110509F080E0F601A1
:1042B000838B02C020E001C021E0822F0F900F907D
:1042C000DF91CF911F910F91FF90EF90DF90CF90F2
:1042D000BF90AF900895FF920F931F93CF93DF93FA
:1042E000EC01F62E8B859C85442309F45BC0843059
:1042F000910574F48130910574F4892B09F04FC055
:10430000CE010E949D0583E090E09C878B8703C0CF
:10431000059709F044C08B859C85059721F483E0BF
:1043200090E09C878B87CE010E948D180BA11CA169
:104330002DA188A599A5820F911D27FD9A95081793
:10434000190769F04B8D4195B801888199810E94C8
:1043500049248DA1080F111D87FD1A95E9CFFF2073
:1043600069F06BA17CA16017710741F04B8D81E072
:1043700048274195888199810E9449244BA15CA1DD
:104380009DA1892F990F990B28A539A5280F391FB1
:104390004217530709F059C025E030E054C085E0CA
:1043A00090E05AC08430910534F4813091056CF46A
:1043B000892B21F04FC0059709F04CC0CE010E9417
:1043C0009D0583E090E09C878B87CE010E948D182D
:1043D0000EA11FA16BA17CA18DA1082E000C990B31
:1043E000AB01480F591F0417150769F04B8D419514
:1043F000B801888199810E9449248DA1080F111D5F
:1044000087FD1A95E7CFFF2079F048A559A5840FBD
:10441000951F6817790741F04B8D81E0482741953A
:10442000888199810E9449244BA15CA19DA1892F7B
:10443000990F990B28A539A5280F391F4217530743
:1044400021F426E030E03C872B87840F951F9CA346
:104450008BA304C086E090E09C878B87DF91CF918F
:104460001F910F91FF900895FF920F931F93CF9389
:10447000DF93EC01F62E8B859C854423F1F184308B
:104480009105B4F481309105ACF4892B99F51CA207
:104490001BA200E010E02BE030E04AA169A1888176
:1044A00099810E94B72083E090E09C878B8702C0AF
:1044B000059701F5CE010E949623CE010E948D182A
:1044C0001BA1173078F4F11003C022E030E002C0E5
:1044D00023E030E04AA169A1888199810E943917BF
:1044E0001F5FEFCF8BA19CA18730910569F525E077
:1044F00030E028C085E090E02DC08430910534F490
:10450000813091055CF4892B19F022C0059701F5E3
:104510001CA21BA283E090E09C878B87F11003C054
:1045200023E030E002C022E030E04AA169A18881A6
:1045300099810E9439178BA19CA18730910521F4A4
:1045400026E030E03C872B8701969CA38BA304C018
:1045500086E090E09C878B87DF91CF911F910F9130
:10456000FF90089590E0FC01EF54F94F2491FC0175
:10457000E356F94F8491882399F090E0880F991FB2
:10458000FC01ED56F94FA591B491FC01E757F94FA5
:10459000859194918FB7F894EC91E22BEC938FBFB7
:1045A0000895CF92DF92EF92FF920F931F93CF93D4
:1045B000DF936C017A018B01C0E0D0E0CE15DF05FE
:1045C00089F0D8016D918D01D601ED91FC9101909A
:1045D000F081E02DC6010995892B11F47E0102C0FE
:1045E0002196ECCFC701DF91CF911F910F91FF90E2
:1045F000EF90DF90CF90089589EF91E00E94EA114B
:1046000021E0892B09F420E0822F08950E94862A58
:104610001F920F920FB60F9211242F933F934F9337
:104620005F936F937F938F939F93AF93BF93EF931A
:10463000FF9389EF91E00E943212FF91EF91BF91B9
:10464000AF919F918F917F916F915F914F913F912A
:104650002F910F900FBE0F901F901895CF92DF9261
:10466000EF92FF920F931F93CF93DF9300D0CDB7BC
:10467000DEB77C016A01CA01019669837A830E94D0
:1046800059298C0169817A810097A9F0A6010E94BD
:104690008B2AF801EC0DFD1D1082D701ED91FC91E4
:1046A0000084F185E02DB801C7010995C8010E9479
:1046B000EE29C60102C080E090E00F900F90DF91DC
:1046C000CF911F910F91FF90EF90DF90CF900895C1
:1046D0000F931F93CF93DF93EC018B01FC01E65DF9
:1046E000FE4F8081882381F0EF5DF1097183608343
:1046F00019A618A61BA61AA681E090E098AF8FAB6A
:104700001AAE19AE1DA61CA6CE010E94BD058111D0
:10471000FBCFF80101900020E9F7CF010197801B42
:10472000910BDF91CF911F910F910895CF93DF935C
:10473000EC014AA169A188819981461710F00E9475
:1047400052138B8D882351F027E030E04AA169A1F4
:1047500088819981DF91CF910C943917DF91CF91A6
:104760000895DF92EF92FF920F931F93CF93DF9301
:10477000EC01D62EF42E8B859C85222309F448C0AB
:1047800084309105B4F481309105ACF4892BE9F5BE
:104790001CA21BA200E010E02BE030E04AA169A1BE
:1047A000888199810E94B72083E090E09C878B8765
:1047B00002C0059751F5CE010E949623CE010E94BA
:1047C0008D18EBA00F2D10E086E08E15B0F0D11003
:1047D00003C022E030E002C023E030E04AA169A13A
:1047E000888199810E94391798014AA169A188811D
:1047F00099810E943917E394E7CF8BA19CA1873060
:104800009105B9F525E030E032C085E090E037C091
:104810008430910534F4813091055CF4892B19F0D2
:104820002CC0059751F51CA21BA283E090E09C8749
:104830008B87D11003C023E030E002C022E030E0DB
:104840004AA169A1888199810E94391781E02F2DA1
:10485000282730E04AA169A1888199810E943917EF
:104860008BA19CA18730910521F426E030E03C87A4
:104870002B8701969CA38BA304C086E090E09C87C5
:104880008B87DF91CF911F910F91FF90EF90DF9079
:104890000895242F462F477033E0769567953A9513
:1048A000E1F70C94591ECF92DF92FF920F931F9362
:1048B000CF93DF93EC01F62E8B859C85442309F47E
:1048C00064C097FD5FC0833091051CF00397F9F039
:1048D00059C01CA21BA2CE010E949623FF2099F072
:1048E0004B8D11E0412741956F85788988819981A9
:1048F0000E9449244B8D4127419569897A89888195
:1049000099810E94492483E090E09C878B87CE01A7
:104910000E949623CE010E948D1809891A898F85DD
:104920009889801B910B97FD01966C01D594C794D3
:104930008BA19CA1C816D9062CF1080F191F0F5F77
:104940001F4F6F8578898BA19CA19B01281B390B78
:104950000217130744F44B8D4195B8018881998162
:104960000E944924ECCF01969CA38BA3FF2009F45D
:1049700090C0C816D9060CF48CC04B8D11E04127AD
:10498000419569C085E090E082C083309105D1F106
:1049900024F401970CF479C003C0059709F075C0A1
:1049A0008F85988929893A89821B930B97FD0196F7
:1049B000959587959CA38BA3CE010E949623CE014B
:1049C0000E948D18FF20D9F04B8D11E041274195B1
:1049D0006F8578898BA19CA1681B790B888199814F
:1049E0000E9449244B8D4127419569897A898BA181
:1049F0009CA1680F791F888199810E94492483E0D6
:104A000090E045C08BA19CA197FD3FC04B8D419587
:104A10006F857889681B790B888199810E94492468
:104A20004B8D419569897A898BA19CA1680F791F6B
:104A3000888199810E9449248BA19CA101979CA304
:104A40008BA3FF2031F197FD24C04B8D11E041274E
:104A500041956F857889681B790B888199810E94BF
:104A600049244B8D4127419569897A898BA19CA165
:104A7000680F791F88819981DF91CF911F910F91E4
:104A8000FF90DF90CF900C94492486E090E09C87C3
:104A90008B87DF91CF911F910F91FF90DF90CF9087
:104AA00008950F931F93CF93DF9383E791E0909343
:104AB00097028093960287EB92E0892B29F48091EC
:104AC000A202882371F11AC0CCEAD3E088819981CF
:104AD000009739F0FC01038114810E94EE29C8017E
:104AE000F7CF8B819C81009711F00E94EE29C25470
:104AF000D109F2E0C43ADF0749F7E1CF9FB7F89454
:104B00008091F801882319F081508093F8018091F9
:104B1000F801811105C08CB58F7B8CBD1092F60118
:104B20009FBF8091A4029091A5020E94EE298091DE
:104B3000A6029091A702DF91CF911F910F910C9443
:104B4000EE291092FC011092FB0188EE93E0A0E0A8
:104B5000B0E08093FD019093FE01A093FF01B0931C
:104B6000000281E691E09093FA018093F90185ECCF
:104B700090E0909306028093050284EC90E090937D
:104B800008028093070280EC90E090930A028093E1
:104B9000090281EC90E090930C0280930B0282EC6E
:104BA00090E090930E0280930D0286EC90E090933B
:104BB000100280930F0210921202109213021092B0
:104BC000140210921502109299021092980283E733
:104BD00091E0909397028093960210929F02109218
:104BE000A0028AE08093A10281E08093A2028093D8
:104BF000A3028093AC0210929B0210929A028093BF
:104C00009C0280939D0210929E02E5EDF2E080E00E
:104C100090E066E070E041E0DF01539711967C93ED
:104C20006E9351961D921C921082128A118A9C01D9
:104C30002A563D4FD901AE5ABF4F1C92158A148A8D
:104C400013964C93138E128E158E148E178E168E0D
:104C50008E5B9F4FEE5BFF4F883021E09207E1F6BD
:104C600081E08093BF030895789484B5826084BD09
:104C700084B5816084BD85B5826085BD85B5816060
:104C800085BD80916E00816080936E0010928100DE
:104C90008091810082608093810080918100816099
:104CA000809381008091800081608093800080915A
:104CB000B10084608093B1008091B00081608093E6
:104CC000B00080917A00846080937A0080917A00AD
:104CD000826080937A0080917A00816080937A006C
:104CE00080917A00806880937A001092C100E091F0
:104CF0000902F0910A0282E08083E0910902F091BA
:104D00000A021082E0910502F09106021082E09101
:104D10000702F091080280E1808310921102E09175
:104D20000D02F0910E0286E08083E0910B02F0917B
:104D30000C02808180618083E0910B02F0910C0273
:104D4000808188608083E0910B02F0910C02808169
:104D500080688083E0910B02F0910C0280818F7D4E
:104D6000808344E650E06DE771E089EF91E00E94B6
:104D7000D1228091A202882389F1CFB7F894809143
:104D8000F801811124C0E7EAF6E08491EBEBF6E04C
:104D90009491E82FF0E0EE0FFF1FED56F94FA5912B
:104DA000B491EC91E92321F461E08AE00E94BC1205
:104DB0008AE00E94B2228CB580618CBD8CB5806483
:104DC0008CBD8DE00E94B2228BE00E94B2228091C5
:104DD000F8018F5F8093F801CFBF08C080919F02D8
:104DE0000E94B2228091A0020E94B22261E08091D2
:104DF000A1020E94BC128091A1020E94B2221092D4
:104E0000A9021092A8021092AB021092AA02C091BD
:104E1000A30229E0C29FC00111240E945929909346
:104E2000A5028093A4028C2F90E0880F991F0E9406
:104E300059299093A7028093A6028091AE02909187
:104E4000AF02845D904051F084ED90E09093AF020A
:104E50008093AE028AE992E00E947A1340E050E02B
:104E600063E070E08AE992E00E94E40447E050E0E9
:104E700061E070E08AE992E00E94E40447E050E0DB
:104E800062E070E08AE992E00E94E40440E050E0D1
:104E900064E070E08AE992E00E94E4044091A30299
:104EA000415060E08AE992E00E94521340E050E0F5
:104EB00060E070E08AE992E00E94E40481E080937F
:104EC000C003C0E0D2E40AE912E08091C003C81731
:104ED00070F4DC9FC0011124FC01EA56FD4F12A3BF
:104EE00001A389549D4F0E949A11CF5FEECF81306C
:104EF00051F49091BF038FEF890F891720F410921E
:104F0000D8028093D90280E022E44AE050E09091F8
:104F1000C003891748F4289FF0011124E954FD4F7C
:104F2000508747838F5FF3CF8091BE029091BF027D
:104F30004AE0489F9001499F300D112480E042E4EF
:104F40009091C003891748F4489FF0011124E95457
:104F5000FD4F328721878F5FF3CFC0E0D2E411E0AD
:104F60008091C003C81768F4DC9FC0011124FC01C4
:104F7000E551FD4F108389549D4F0E949A11CF5FD8
:104F8000EFCF80E022E49091C003891748F4289F76
:104F9000F0011124E954FD4F158E148E8F5FF3CF6D
:104FA00080E022E49091C003891748F4289FF00123
:104FB0001124E954FD4F158A148A8F5FF3CFEDEC6D
:104FC000F2E080E021E030E0891741F03183208376
:104FD000138212828F5FEE5BFF4FF6CF1092E202D8
:104FE0001092E10280E022E49091C003891740F41E
:104FF000289FF0011124E954FD4F138E8F5FF4CFE9
:10500000C0E0D2E48091C003C81750F4DC9FC00117
:10501000112467E089549D4F0E94D304CF5FF2CFE3
:105020008091AE029091AF02892B51F084ED90E017
:105030009093AF028093AE028AE992E00E947A13C5
:105040008091C003882311F181EC93E09093E202F8
:105050008093E1021092CC021092CB0288E290E0A1
:105060009093BF028093BE021092C1021092C002C0
:1050700084E090E09093CE028093CD029093D00292
:105080008093CF021092C3021092C20282E4F82EE3
:1050900002E011E0EE24E39486E992E00E94BD056F
:1050A000882361F180915201882341F062E071E030
:1050B00081EC93E00E949B2A1092520180E0909133
:1050C000C0038917D8F4F89EF0011124E954FD4F6C
:1050D000148613868F5FF3CFC0910001D091010138
:1050E00089EF91E00E94C81188838A3071F4188298
:1050F0001093010100930001E092520189EF91E0C9
:105100000E94EA11892B41F70CC0CE0182509140D8
:105110008E34910564F72196D0930101C09300016C
:10512000EDCF0E94F611B8CF8F929F92AF92BF92AF
:10513000CF92DF92EF92FF92CF93DF93EC016881E1
:1051400079818A819B81611571058105910521F421
:1051500064E279ED8BE597E02DE133EF41E050E03B
:105160000E94F02849015A019B01AC01A7EAB1E471
:105170000E940F296B017C01ACEEB4EFA5019401F4
:105180000E941D29DC01CB018C0D9D1DAE1DBF1D94
:10519000B7FF03C00197A109B04888839983AA8308
:1051A000BB83BC01CD019F77DF91CF91FF90EF9042
:1051B000DF90CF90BF90AF909F908F9008950E9406
:1051C0009428089583E591E00E94942808956093BF
:1051D00053017093540180935501909356010895A3
:1051E000052E97FB1EF400940E94072957FD07D057
:1051F0000E94222907FC03D04EF40C9407295095F5
:105200004095309521953F4F4F4F5F4F08959095B2
:105210008095709561957F4F8F4F9F4F08950E94A5
:105220004429A59F900DB49F900DA49F800D911DC2
:1052300011240895B7FF0C940F290E940F29821B97
:10524000930B0895A1E21A2EAA1BBB1BFD010DC0F2
:10525000AA1FBB1FEE1FFF1FA217B307E407F50726
:1052600020F0A21BB30BE40BF50B661F771F881F02
:10527000991F1A9469F760957095809590959B0198
:10528000AC01BD01CF010895A29FB001B39FC00141
:10529000A39F700D811D1124911DB29F700D811D62
:1052A0001124911D0895EE0FFF1F0590F491E02D3C
:1052B0000994CF93DF938230910510F482E090E05F
:1052C000E0911304F091140420E030E0C0E0D0E05D
:1052D000309711F14081518148175907C0F04817A4
:1052E000590761F482819381209719F09B838A8307
:1052F0002BC0909314048093130426C0211531050C
:1053000019F04217530718F49A01BE01DF01EF01AB
:105310000280F381E02DDCCF2115310509F1281B36
:10532000390B2430310590F412968D919C9113978E
:105330006115710521F0FB019383828304C0909372
:10534000140480931304FD01329644C0FD01E20F62
:10535000F31F81939193225031092D933C933AC0CE
:105360002091110430911204232B41F42091590112
:1053700030915A0130931204209311042091570167
:10538000309158012115310541F42DB73EB74091B8
:105390005B0150915C01241B350BE0911104F091ED
:1053A0001204E217F307A0F42E1B3F0B281739074E
:1053B00078F0AC014E5F5F4F2417350748F04E0F71
:1053C0005F1F50931204409311048193919302C084
:1053D000E0E0F0E0CF01DF91CF9108950F931F93AC
:1053E000CF93DF93009709F48CC0FC0132971382AE
:1053F000128200911304109114040115110581F417
:1054000020813181820F931F209111043091120469
:105410002817390779F5F0931204E093110471C04D
:10542000D80140E050E0AE17BF0750F412962D911E
:105430003C911397AD012115310509F1D901F3CF45
:105440009D01DA013383228360817181860F971F6A
:105450008217930769F4EC0128813981260F371FE1
:105460002E5F3F4F318320838A819B819383828388
:10547000452B29F4F0931404E093130442C01396CF
:10548000FC93EE931297ED01499159919E01240FDF
:10549000351FE217F30771F480819181840F951F06
:1054A000029611969C938E938281938113969C937E
:1054B0008E931297E0E0F0E0D80112968D919C91C6
:1054C0001397009719F0F8018C01F6CF8D919C91FC
:1054D00098012E5F3F4F820F931F2091110430914E
:1054E00012042817390769F4309729F4109214042C
:1054F0001092130402C013821282109312040093BC
:105500001104DF91CF911F910F91089581E090E0F8
:10551000F8940C94A22AFB01DC0102C001900D92C8
:1055200041505040D8F70895DC0101C06D934150BF
:105530005040E0F70895FB01DC0101900D9200203E
:10554000E1F7089513E0C4E6D3E004C0FE010E9431
:0E55500053292196C536D107C9F7F894FFCF2D
:10555E0002015448495320495320474F44275320B2
:10556E004F574E2046414D494C592E000000000029
:10557E00000000000000000000000000000000001D
:10558E00000000000000000000000000000000000D
:10559E0000000000000000000000000000000000FD
:1055AE000000010100000000001504800000000052
:1055BE00005312D122B9119A12EA11C811DC11004E
:1055CE000000008F032E23A803A70368230A5B5055
:1055DE0061726F6C61205363726F6C6C696E6720C1
:1055EE00446973706C61795D0A547970652061202D
:1055FE006D65737361676520666F722074686520D0
:10560E007363726F6C6C696E6720646973706C6122
:10561E00790A456E64206D657373616765206C69E8
:10562E006E6520776974682061206E65776C696E8F
:02563E00650005
:107E0000112484B714BE81FFF0D085E080938100F7
:107E100082E08093C00088E18093C10086E0809377
:107E2000C20080E18093C4008EE0C9D0259A86E02C
:107E300020E33CEF91E0309385002093840096BBD3
:107E4000B09BFECF1D9AA8958150A9F7CC24DD24C4
:107E500088248394B5E0AB2EA1E19A2EF3E0BF2EE7
:107E6000A2D0813461F49FD0082FAFD0023811F036
:107E7000013811F484E001C083E08DD089C08234E0
:107E800011F484E103C0853419F485E0A6D080C0E4
:107E9000853579F488D0E82EFF2485D0082F10E0AE
:107EA000102F00270E291F29000F111F8ED06801E7
:107EB0006FC0863521F484E090D080E0DECF843638
:107EC00009F040C070D06FD0082F6DD080E0C81688
:107ED00080E7D80618F4F601B7BEE895C0E0D1E017
:107EE00062D089930C17E1F7F0E0CF16F0E7DF06D8
:107EF00018F0F601B7BEE89568D007B600FCFDCFD4
:107F0000A601A0E0B1E02C9130E011968C91119780
:107F100090E0982F8827822B932B1296FA010C0160
:107F200087BEE89511244E5F5F4FF1E0A038BF0790
:107F300051F7F601A7BEE89507B600FCFDCF97BE46
:107F4000E89526C08437B1F42ED02DD0F82E2BD052
:107F50003CD0F601EF2C8F010F5F1F4F84911BD097
:107F6000EA94F801C1F70894C11CD11CFA94CF0C13
:107F7000D11C0EC0853739F428D08EE10CD085E9AC
:107F80000AD08FE07ACF813511F488E018D01DD067
:107F900080E101D065CF982F8091C00085FFFCCF94
:107FA0009093C60008958091C00087FFFCCF809118
:107FB000C00084FD01C0A8958091C6000895E0E648
:107FC000F0E098E1908380830895EDDF803219F02E
:107FD00088E0F5DFFFCF84E1DECF1F93182FE3DFCA
:107FE0001150E9F7F2DF1F91089580E0E8DFEE27F6
:047FF000FF270994CA
:027FFE00040479
:0400000300007E007B
:00000001FF
