:100000000C9439030C9461030C9461030C94610308
:100010000C9461030C9461030C9461030C946103D0
:100020000C9461030C9461030C9461030C946103C0
:100030000C9461030C9461030C9461030C946103B0
:100040000C9416080C9461030C9461030C946103E6
:100050000C9461030C9461030C9461030C94610390
:100060000C9461030C94610300000008000201007D
:10007000000304070000000000000000460100FF2C
:100080000800053E5B4F5B3E053E6B4F6B3E051C1B
:100090003E7C3E1C05183C7E3C18051C577D571CB9
:1000A000051C5E7F5E1C0400183C1805FFE7C3E7D3
:1000B000FF040018241805FFE7DBE7FF0530483A86
:1000C000060E05262979292605407F0505070540E6
:1000D0007F05253F055A3CE73C5A057F3E1C1C081E
:1000E00005081C1C3E7F0514227F2214055F5F005B
:1000F0005F5F0506097F017F046689956A05606078
:100100006060600594A2FFA2940508047E040805BF
:1001100010207E20100508082A1C0805081C2A0843
:1001200008051E10101010050C1E0C1E0C05303892
:100130003E383005060E3E0E06020000015F030742
:10014000000705147F147F1405242A7F2A12052333
:100150001308646205364956205003080703031C40
:1001600022410341221C052A1C7F1C2A0508083E47
:100170000808038070300508080808080260600558
:100180002010080402053E5149453E03427F4005C8
:100190007249494946052141494D33051814127FDA
:1001A00010052745454539053C4A49493105412156
:1001B00011090705364949493605464949291E01AD
:1001C0001402806804081422410514141414140441
:1001D00041221408050201590906053E415D594EA8
:1001E000057C1211127C057F49494936053E414183
:1001F0004122057F4141413E057F49494941057FF3
:1002000009090901053E41415173057F0808087F2E
:1002100003417F41052040413F01057F08142241F1
:10022000057F40404040057F021C027F057F040897
:10023000107F053E4141413E057F09090906053E03
:100240004151215E057F0919294605264949493250
:100250000503017F0103053F4040403F051F20404B
:10026000201F053F4038403F056314081463050311
:1002700004780403056159494D43037F4141050258
:10028000040810200341417F0504020102040540D7
:100290004040404003030708052054547840057F40
:1002A0002844443805384444442805384444287FC9
:1002B00005385454541804087E09020518A4A49C57
:1002C00078057F0804047803447D40044080807AE8
:1002D000047F10284403417F40057C04780478059E
:1002E0007C0804047805384444443805FC18242468
:1002F000180518242418FC057C0804040805485433
:1003000054542404043F4424053C4040207C051CF4
:100310002040201C053C4030403C05442810284427
:10032000054C9090907C054464544C44030836413D
:10033000017703413608050201020402053C262329
:10034000263C051EA1A161120538424022780538DD
:100350005454555905215555794105215454784136
:1003600005215554784005205455794005183CA482
:10037000E42405395555555905385554555805390E
:100380005554545803457C410402457D42040145BF
:100390007C4005F0292429F005F0282528F0047C6C
:1003A000545545072054547C545408067C0A097F50
:1003B000494905324949493205304A484A300532EF
:1003C0004A484830053A4141217A053A424020786E
:1003D000049DA0A07D053845444538053C41404179
:1003E0003C053C24FF242405487E494366052B2F09
:1003F000FC2F2B05FF0929F62005C0887E0903057F
:10040000205454794103447D41053048484A32051F
:10041000384040227A047A0A0A72057D0D19317D2E
:10042000052629292F280526292929260530484D62
:100430004020053808080808050808080838052F6E
:1004400010C8ACBA052F102834FA017B0508142A0D
:1004500014220522142A140805AA005500AA05AA88
:1004600055AA55AA0500000000FF0510101010FF46
:100470000514141414FF051010FF00FF051010F0F0
:1004800010F00514141414FC051414F700FF0500F3
:1004900000FF00FF051414F404FC05141417101FCA
:1004A0000510101F101F05141414141F0510101030
:1004B00010F0050000001F10051010101F1005108F
:1004C0001010F01005000000FF10051010101010A3
:1004D00005101010FF1005000000FF14050000FFBC
:1004E00000FF0500001F1017050000FC04F40514B0
:1004F00014171017051414F404F4050000FF00F796
:10050000051414141414051414F700F70514141426
:1005100017140510101F101F05141414F4140510DF
:1005200010F010F00500001F101F050000001F1440
:1005300005000000FC14050000F010F0051010FF8D
:1005400010FF05141414FF1405101010101F0500DF
:100550000000F01005FFFFFFFFFF05F0F0F0F0F0E6
:1005600003FFFFFF05000000FFFF050F0F0F0F0F38
:10057000053844443844057C2A2A3E14057E02028C
:10058000060605027E027E02056355494163053871
:1005900044443C0405407E201E200506027E0202E3
:1005A0000599A5E7A599051C2A492A1C054C720145
:1005B000724C05304A4D4D3005304878483005BC06
:1005C000625A463D043E494949057E0101017E05C6
:1005D0002A2A2A2A2A0544445F44440540514A44B1
:1005E000400540444A5140050000FF010303E080FC
:1005F000FF0508086B6B0805361236243605060F12
:10060000090F0604000018180400001010053040FF
:10061000FF010105001F01011E0500191D1712052C
:10062000003C3C3C3C05FF818181FF05FFFFFFFF53
:10063000FF00000000250028002B0000000000241F
:100640000027002A00040404040404040402020233
:100650000202020303030303030102040810204003
:1006600080010204081020010204081020007C0A06
:100670008D0A11241FBECFEFD8E0DEBFCDBF11E041
:10068000A0E0B1E0EEEEF7E102C005900D92A035DA
:10069000B107D9F721E0A0E5B1E001C01D92A5386E
:1006A000B207E1F713E0C8E3D3E004C02197FE01ED
:1006B0000E94B00AC733D107C9F70E9460080C94A2
:1006C000EA0B0C94000090E0FC01E75AF94F2491EA
:1006D000FC01EB5BF94F8491882399F090E0880F3F
:1006E000991FFC01E55CF94FA591B491FC01EF5C09
:1006F000F94F859194918FB7F894EC91E22BEC939C
:100700008FBF089590E0FC01E859FF4F3491FC0140
:10071000E75AF94F2491FC01EB5BF94FE491EE238A
:1007200009F43BC0332339F1333091F038F43130E0
:10073000A9F0323001F584B58F7D12C0373091F0C9
:100740003830A1F03430B9F4809180008F7D03C03F
:10075000809180008F77809380000DC084B58F7763
:1007600084BD09C08091B0008F7703C08091B00034
:100770008F7D8093B000F0E0EE0FFF1FEF5CF94F2C
:10078000A591B4918FB7F894EC91611103C02095B5
:100790002E2301C02E2B2C938FBF0895DF92EF9252
:1007A000FF920F931F93CF93DF9380916C01882367
:1007B000B9F080916301882379F08FB7F894909114
:1007C0006301913039F49DB3909362019DB39DBB59
:1007D0008FBF02C08093620180E58CBD81E08DBD3A
:1007E00060E080916B010E94820380916C01811115
:1007F00002C010E03DC040E0242F30E080916D0148
:1008000090E0880F991F2817390780F480917001B4
:1008100090917101FC01E20FF31F80818EBD0000F9
:100820000DB407FEFDCF8EB54F5FE6CF61E080913E
:100830006B010E94820380916C01882309F442C0FD
:1008400031C0B7010C2E02C0759567950A94E2F786
:10085000617077278D2D0E94820361E0802F0E94B6
:10086000820360E0802F0E948203219750F71F5F70
:10087000212F30E080916D0190E0880F991F28179B
:100880003907A0F68091700190917101FC01E20F8F
:10089000F31FE08000916A01D0906901C7E0D0E0C9
:1008A000F12CCFCF80916301882361F09FB7F8943A
:1008B0002091630180916201213019F48DBB9FBFAB
:1008C00001C08FBFDF91CF911F910F91FF90EF90EB
:1008D000DF900895E4E6F1E0418550E0440F551FB4
:1008E00060E070E0848595850C94E30BFF920F9394
:1008F0001F93CF93DF9300E010E0C1E0D0E00E94AF
:100900006A049E01002E02C0220F331F0A94E2F7F0
:1009100060E0F12C71E0700F80916D0190E0462F46
:1009200050E048175907C4F5E9E06E9FD001112443
:10093000E0916E01F0916F01EA0FFB1FE085F0E09E
:10094000E223F323EF2B31F10197841B950B880FE2
:10095000991FE0917001F0917101E80FF91F708308
:1009600080916E0190916F01A80FB91FA00FB11F68
:100970008C91E0916D01F0E03197E41BF50BEE0FE7
:10098000FF1F4091700150917101E40FF51F8183A9
:10099000FF24F3946F5FC0CFF1100E94CE030F5F6E
:1009A0001F4F0830110509F0AACF60916E017091B8
:1009B0006F0180E020916D0130E0482F50E0421738
:1009C00053074CF4FB0199E0899FE00DF11D1124C0
:1009D00010868F5FEFCFDF91CF911F910F91FF9026
:1009E0000895FF920F931F93CF93DF938C01EB0138
:1009F000F0906D018A3091050CF062C00E946A048B
:100A000080E04FEF4F0D02301105E1F03CF401158D
:100A1000110559F00130110571F047C0033011057F
:100A2000F9F004301105A9F040C091E0209709F0D9
:100A300090E05CE01AC09C2FC830D1050CF097E024
:100A40005BE013C09C2FC031D1050CF09FE05AE051
:100A50000CC091E0209709F490E0919559E005C011
:100A600091E0209709F490E05FE0282F30E0E091DA
:100A70006D01F0E03197E21BF30BEE0FFF1F609169
:100A8000700170917101E60FF71F5083E0916D01C5
:100A9000F0E03197E21BF30BEE0FFF1F2091700186
:100AA00030917101E20FF31F91838F5F481708F0B7
:100AB000AACFDF91CF911F910F91FF900C94CE039D
:100AC0008A30910519F00B9789F017C081E06130E9
:100AD000710509F080E080937601882371F0DF9141
:100AE000CF911F910F91FF900C94760481E06130BB
:100AF000710509F080E080937701DF91CF911F911C
:100B00000F91FF900895EF92FF920F931F93CF9351
:100B1000DF93082F10E020916D0130E002171307DA
:100B20000CF052C099E0899FE0011124E12CF12CD6
:100B3000E0916E01F0916F01EC0FFD1F808590E058
:100B40000E2C02C0959587950A94E2F780FF2DC080
:100B50000E946A04E0916D01F0E03197E01BF10B17
:100B6000EE0FFF1F8091700190917101E80FF91F46
:100B700081E08E0D8083E0916E01F0916F01EC0FAA
:100B8000FD1FEE0DFF1D8081E0916D01F0E03197BA
:100B9000E01BF10BEE0FFF1F2091700130917101EE
:100BA000E20FF31F81830E94CE038FEFE81AF80A49
:100BB00098E0E916F10409F0BBCF80916E019091A5
:100BC0006F01C80FD91F1886DF91CF911F910F9128
:100BD000FF90EF9008954F925F926F927F928F9265
:100BE0009F92AF92BF92CF92DF92EF92FF920F93BC
:100BF0001F93CF93DF93162F9091660120916D0183
:100C0000682F70E030E0992309F47CC06217730705
:100C10000CF0CFC0183008F0CCC09091680129E0EA
:100C2000829FD0011124E0916E01F0916F01EA0FD3
:100C3000FB1F5091670127E030E0211B3109C12CD7
:100C4000D12C7601C3944601570104C0880C991C2D
:100C5000AA1CBB1C2A95D2F72601370104C0440CFC
:100C6000551C661C771C1A95D2F7930182015523F7
:100C700019F0D82C082D01C0D42C009567E070E045
:100C800027E0E22EF12C50E09701261B370BEA01FA
:100C9000022E02C0D595C7950A94E2F7C0FF0FC097
:100CA000992319F0EB019B0101C0E9015E01AE0E31
:100CB000BF1E2E0F3F1FE90128812D290EC0992349
:100CC00019F0EB019B0101C0E9015E01AE0EBF1EF0
:100CD0002E0F3F1FE90128812023E5012883615061
:100CE000710990F620916E0130916F01A20FB31F30
:100CF0009FEF18969C939091760191110E94830525
:100D000091E058C0621773070CF054C0183008F017
:100D100051C0E0916E01F0916F0129E0829FE00DDA
:100D2000F11D112450916801C12FD0E0552329F005
:100D3000A7E0B0E0AC1BBD0B01C0DE0190916701E4
:100D4000992399F04295942F937364E0969F9001B4
:100D500011244C7C46954695242B422F4575942FA3
:100D6000990F422F4A7A4695492BAE0FBF1F4C93DD
:100D70009085552381F027E030E02C1B3D0B41E0AE
:100D800050E060E070E004C0440F551F661F771FFD
:100D90002A95D2F70BC041E050E060E070E004C05B
:100DA000440F551F661F771F1A95D2F7492B4087AE
:100DB000A2CF90E0892FDF91CF911F910F91FF90EB
:100DC000EF90DF90CF90BF90AF909F908F907F90EB
:100DD0006F905F904F9008958F929F92AF92BF92C5
:100DE000CF92DF92EF92FF920F931F93CF93DF93F7
:100DF000DB0153E0B695A7955A95E1F76D01DD2427
:100E000020916D0130E0C216D3060CF0D8C08830B6
:100E100008F0D5C06770772720916601909168012E
:100E2000C0916E01D0916F01F0906701222309F407
:100E30004EC0082F10E0992329F027E030E0201B56
:100E4000310B01C0980149E04C9DF0014D9DF00D22
:100E50001124EC0FFD1F992329F047E050E0401BBF
:100E6000510B01C0A801EF01C40FD51FC881FF209D
:100E700089F047E050E07A01E61AF70A41E050E0D5
:100E800060E070E004C0440F551F661F771FEA94AE
:100E9000D2F70FC0C12CD12C7601C3944601570163
:100EA00004C0880C991CAA1CBB1C6A95D2F7B5011A
:100EB000A4012E0F3F1F4C2BE90148832085992365
:100EC00009F457C087E090E0801B910B52C0992332
:100ED00029F047E050E0461B570B01C0AB0129E069
:100EE0002C9DF0012D9DF00D1124EC0FFD1F992379
:100EF00029F027E030E0261B370B01C09B01EF01F2
:100F0000C20FD31FC881FF2089F027E030E07901AC
:100F1000E81AF10801E010E020E030E004C0000F22
:100F2000111F221F331FEA94D2F70BC001E010E01B
:100F300020E030E004C0000F111F221F331F8A95EC
:100F4000D2F74E0F5F1F0C2BEA010883808599238F
:100F5000E9F027E030E0261B370B41E050E060E08D
:100F600070E004C0440F551F661F771F2A95D2F703
:100F70001CC041E050E060E070E004C0440F551F29
:100F8000661F771F8A95D2F7422B10C001E010E050
:100F900020E030E04801590104C0880C991CAA1CCB
:100FA000BB1C6A95D2F7B501A401482B408710916C
:100FB0007601112331F08A2F0E94830503C010E0CF
:100FC00001C011E0812FDF91CF911F910F91FF9010
:100FD000EF90DF90CF90BF90AF909F908F9008954B
:100FE00090916D01915080E058E04FEF69E0869F4D
:100FF00090011124E0916E01F0916F01E20FF31F57
:10100000DF01652F1D926A95E9F760916E0170917D
:101010006F01FB01E20FF31F40878F5F981730F7D6
:101020008091760181110C94760408951F920F929D
:101030000FB60F9211242F933F938F939F93AF93EB
:10104000BF938091560190915701A0915801B091A2
:1010500059013091540123E0230F2D3720F40196DC
:10106000A11DB11D05C026E8230F0296A11DB11DCB
:10107000209354018093560190935701A0935801F7
:10108000B09359018091500190915101A09152016A
:10109000B09153010196A11DB11D80935001909311
:1010A0005101A0935201B0935301BF91AF919F9111
:1010B0008F913F912F910F900FBE0F901F90189519
:1010C000789484B5826084BD84B5816084BD85B523
:1010D000826085BD85B5816085BD80916E0081602F
:1010E00080936E00109281008091810082608093D5
:1010F00081008091810081608093810080918000D7
:101100008160809380008091B10084608093B10001
:101110008091B00081608093B00080917A008460FB
:1011200080937A0080917A00826080937A00809127
:101130007A00816080937A0080917A008068809341
:101140007A001092C10080916C01882389F1CFB799
:10115000F89480915501811124C0EFE4F6E0849168
:10116000E3E6F6E09491E82FF0E0EE0FFF1FE55C78
:10117000F94FA591B491EC91E92321F461E08AE063
:101180000E9482038AE00E9463038CB580618CBD5B
:101190008CB580648CBD8DE00E9463038BE00E945F
:1011A0006303809155018F5F80935501CFBF08C0C5
:1011B000809169010E94630380916A010E94630328
:1011C00061E080916B010E94820380916B010E941B
:1011D00063031092730110927201109275011092C4
:1011E0007401C0916D0129E0C29FC00111240E94C9
:1011F000B60A90936F0180936E018C2F90E0880F58
:10120000991F0E94B60A909371018093700180919A
:101210007801909179018C57904009F451C0ECE726
:10122000F0E0F0937901E093780110927A0188E080
:1012300080937B0110927D018FEF80937E0110924D
:10124000800110927F01E491E634E9F4EDE7F0E0EB
:10125000E491E13091F4EEE7F0E0E491E0937D0178
:10126000EFE7F0E0E491E0937E01E0E8F0E0E49164
:10127000E0937B0185E090E002C082E090E09093F3
:10128000800180937F0160917F0170918001809146
:101290007D0190E040917E0150E020E04817590721
:1012A00068F0FB01E458FF4FE4912E1708F42E2F4D
:1012B000F0E031966E0F7F1F0196F0CF20937C01F6
:1012C00060E070E083E090E00E94F10467E070E08D
:1012D00081E090E00E94F10467E070E082E090E03D
:1012E0000E94F10460E070E084E090E00E94F1046C
:1012F0000E94F00760E070E080E090E00E94F1045E
:1013000067E070E082E090E00E94F10461E070E04C
:101310008AE090E00E94F1040E94F0072FB7F89451
:101320008091560190915701A0915801B0915901B7
:101330002FBF80935E0190935F01A0936001B093F3
:10134000610142E1B42E00E010E05EEEE52EFF24E4
:10135000FA94AA24A3942FB7F894809156019091FF
:101360005701A0915801B09159012FBF40915E01E2
:1013700050915F016091600170916101841B950B38
:10138000A60BB70B86399105A105B10508F4ADC0D0
:101390002FB7F8948091560190915701A091580170
:1013A000B09159012FBF80935E0190935F01A0938C
:1013B0006001B093610160E070E08AE090E00E941B
:1013C000F10480910001811103C0C12CD12C27C0F0
:1013D0000E94F007F0925D01E0925C0110925B01C7
:1013E000A0925A0110920001C3E0D0E0BE0183E058
:1013F0000E94EC06BE0184E00E94EC066E018FEFB5
:10140000C81AD80AB60183E00E94EC06B60184E04F
:101410000E94EC062896C336D10541F7D6CFC0917D
:101420005C01D0915D01CE0142978C0D9D1D682F0E
:10143000677033E0969587953A95E1F740E00E9412
:10144000EB052FEFC21AD20A82E1C816D10439F790
:101450006E012FEFC21AD20AD0925D01C0925C01D8
:101460003E0181E1681A7108812C912CD0915B01B9
:10147000F401BD9EE00DF11D1124E95FFE4F662DC4
:101480006770C30123E0969587952A95E1F740811F
:101490000E94EB052FEF821A920A8FEF681A780AE2
:1014A00022E18216910411F790915A018D2F890F34
:1014B00080935B01882311F0833019F49195909308
:1014C0005A0180916D0128E0829FC001112442964B
:1014D00021E0C816D90609F020E02093000161E060
:1014E00070E08AE090E00E94F1040115110509F412
:1014F00032CF0E9400002FCFE4E6F1E01582168281
:101500008AE0878381E080879CE09187828B1182CB
:101510001082828383831482089580916C018823D2
:1015200099F09FB7F89480915501882319F0815064
:101530008093550180915501811105C08CB58F7B39
:101540008CBD109263019FBF80916E0190916F01DD
:101550000E944B0B80917001909171010C944B0B88
:10156000EE0FFF1F0590F491E02D0994CF93DF93C8
:101570008230910510F482E090E0E0918301F091D7
:10158000840120E030E0C0E0D0E0309711F14081EC
:10159000518148175907C0F04817590761F48281F3
:1015A0009381209719F09B838A832BC090938401A9
:1015B0008093830126C02115310519F04217530786
:1015C00018F49A01BE01DF01EF010280F381E02DE2
:1015D000DCCF2115310509F1281B390B24303105E9
:1015E00090F412968D919C9113976115710521F0DD
:1015F000FB019383828304C09093840180938301D1
:10160000FD01329644C0FD01E20FF31F81939193D7
:10161000225031092D933C933AC0209181013091A1
:101620008201232B41F42091030130910401309376
:101630008201209381012091010130910201211545
:10164000310541F42DB73EB7409105015091060197
:10165000241B350BE0918101F0918201E217F30721
:10166000A0F42E1B3F0B2817390778F0AC014E5F12
:101670005F4F2417350748F04E0F5F1F50938201CC
:10168000409381018193919302C0E0E0F0E0CF01AB
:10169000DF91CF9108950F931F93CF93DF9300971E
:1016A00009F48CC0FC0132971382128200918301ED
:1016B000109184010115110581F420813181820F7F
:1016C000931F20918101309182012817390779F504
:1016D000F0938201E093810171C0D80140E050E0B5
:1016E000AE17BF0750F412962D913C911397AD01A0
:1016F0002115310509F1D901F3CF9D01DA013383B9
:10170000228360817181860F971F8217930769F486
:10171000EC0128813981260F371F2E5F3F4F31831F
:1017200020838A819B8193838283452B29F4F093C4
:101730008401E093830142C01396FC93EE931297C9
:10174000ED01499159919E01240F351FE217F307CE
:1017500071F480819181840F951F029611969C935C
:101760008E938281938113969C938E931297E0E0DF
:10177000F0E0D80112968D919C911397009719F083
:10178000F8018C01F6CF8D919C9198012E5F3F4F0F
:10179000820F931F20918101309182012817390710
:1017A00069F4309729F4109284011092830102C0E9
:1017B000138212821093820100938101DF91CF91F5
:1017C0001F910F910895DC0101C06D93415050406D
:1017D000E0F7089513E0C8E3D3E004C0FE010E94DF
:0E17E000B00A2196C933D107C9F7F894FFCF9C
:1017EE0001000085018000FE73FB7FF37BFE00008D
:1017FE00003C7E7EFFE7C38100FE7BF37FFB73FE22
:10180E000000003C7EFFFFE7E74200FE73FB7FF324
:10181E007BFE0000003C7EFFFFFFE76624FE7BF3AD
:10182E007FF37BFE0000003C7EFFFFFFFF7E3C004F
:00000001FF
