:100000000C945D000C9485000C9485000C94850084
:100010000C9485000C9485000C9485000C9485004C
:100020000C9485000C9485000C9485000C9485003C
:100030000C9485000C9485000C9485000C9485002C
:100040000C94C5020C9485000C9493020C946D02E0
:100050000C9485000C9485000C9485000C9485000C
:100060000C9485000C94850000000008000201003B
:100070000003040700000000000000000000000072
:10008000250028002B0000000000240027002A0083
:10009000040404040404040402020202020203032E
:1000A0000303030301020408102040800102040836
:1000B0001020010204081020690411241FBECFEF94
:1000C000D8E0DEBFCDBF11E0A0E0B1E0E4EFF9E0A1
:1000D00002C005900D92A631B107D9F721E0A6E143
:1000E000B1E001C01D92AE3BB207E1F710E0CDE5F3
:1000F000D0E004C02197FE010E94ED04CC35D10769
:10010000C9F70E940F030C94F8040C940000E7EA6E
:10011000F0E02491E3E9F0E08491882399F090E005
:10012000880F991FFC01EA57FF4FA591B491FC017C
:10013000E458FF4F859194918FB7F894EC91E22B9E
:10014000EC938FBF0895EBE6F0E02491E7EAF0E04E
:100150009491E3E9F0E0E491EE2309F43BC022231B
:1001600039F1233091F038F42130A9F0223001F533
:1001700024B52F7D12C0273091F02830A1F0243013
:10018000B9F4209180002F7D03C0209180002F774B
:10019000209380000DC024B52F7724BD09C0209185
:1001A000B0002F7703C02091B0002F7D2093B000C6
:1001B000F0E0EE0FFF1FE458FF4FA591B4912FB769
:1001C000F894EC91811103C090959E2301C09E2B61
:1001D0009C932FBF0895CF92DF92EF92FF920F93DF
:1001E0001F93CF93DF936C017A018B01C0E0D0E0C5
:1001F000CE15DF0589F0D8016D918D01D601ED9105
:10020000FC910190F081E02DC6010995892B11F434
:100210007E0102C02196ECCFC701DF91CF911F91E3
:100220000F91FF90EF90DF90CF900895089580E0B8
:1002300090E00895FC01538D448D252F30E0842FEC
:1002400090E0821B930B541710F0CF9608950197FE
:100250000895FC01918D828D981761F0828DDF01E8
:10026000A80FB11D5D968C91928D9F5F9F73928FA9
:1002700090E008958FEF9FEF0895FC01918D828D9E
:10028000981731F0828DE80FF11D858D90E008956B
:100290008FEF9FEF0895FC01918D228D892F90E0C3
:1002A000805C9F4F821B91098F739927089581E28B
:1002B00091E00E944B0121E0892B09F420E0822F7C
:1002C0000895FC01848DDF01A80FB11DA35ABF4F13
:1002D0002C91848D90E001968F739927848FA68945
:1002E000B7892C93A089B1898C9180648C93938D6C
:1002F000848D981306C00288F389E02D80818F7D5C
:1003000080830895EF92FF920F931F93CF93DF9313
:10031000EC0181E0888F9B8D8C8D981305C0E88956
:10032000F989808185FD24C0F62E0B8D10E00F5FCA
:100330001F4F0F731127E02E8C8DE8120CC00FB6E3
:1003400007FCFACFE889F989808185FFF5CFCE01D6
:100350000E946101F1CF8B8DFE01E80FF11DE35A80
:10036000FF4FF0820B8FEA89FB898081806207C092
:10037000EE89FF896083E889F989808180648083C0
:1003800081E090E0DF91CF911F910F91FF90EF906E
:100390000895CF93DF93EC01888D8823C9F0EA8913
:1003A000FB89808185FD05C0A889B9898C9186FD6E
:1003B0000FC00FB607FCF5CF808185FFF2CFA8896B
:1003C000B9898C9185FFEDCFCE010E946101E7CF05
:1003D000DF91CF91089580E090E0892B29F00E9471
:1003E000570181110C94000008953FB7F894809153
:1003F0001B0190911C01A0911D01B0911E0126B519
:10040000A89B05C02F3F19F00196A11DB11D3FBF4C
:10041000BA2FA92F982F8827820F911DA11DB11DDA
:10042000BC01CD0142E0660F771F881F991F4A95D6
:10043000D1F708958F929F92AF92BF920F931F931F
:10044000CF93DF93CDB7DEB7A1970FB6F894DEBF99
:100450000FBECDBF19A2423008F44AE08E010F5DF5
:100460001F4F842E912CA12CB12CA50194010E9428
:10047000B504E62FB901CA0101501109EA3014F49C
:10048000E05D01C0E95CD801EC93232B242B252BE4
:1004900061F70115110571F0F80101900020E9F7ED
:1004A0003197AF01401B510BB80181E291E00E94EE
:1004B000EB0002C080E090E0A1960FB6F894DEBF9A
:1004C0000FBECDBFDF91CF911F910F91BF90AF9025
:1004D0009F908F9008950E94F3041F920F920FB681
:1004E0000F9211242F933F934F935F936F937F93BA
:1004F0008F939F93AF93BF93EF93FF9381E291E02C
:100500000E946101FF91EF91BF91AF919F918F91F7
:100510007F916F915F914F913F912F910F900FBEFF
:100520000F901F9018951F920F920FB60F921124E3
:100530002F938F939F93EF93FF93E0913101F0916D
:1005400032018081E0913701F091380182FD12C0C3
:10055000908180913A018F5F8F7320913B018217C8
:1005600051F0E0913A01F0E0EF5DFE4F958F8093FE
:100570003A0101C08081FF91EF919F918F912F915E
:100580000F900FBE0F901F9018951F920F920FB6ED
:100590000F9211242F933F938F939F93AF93BF9309
:1005A0008091170190911801A0911901B0911A0141
:1005B0003091160123E0230F2D3720F40196A11D61
:1005C000B11D05C026E8230F0296A11DB11D209381
:1005D00016018093170190931801A0931901B0930D
:1005E0001A0180911B0190911C01A0911D01B091F5
:1005F0001E010196A11DB11D80931B0190931C014A
:10060000A0931D01B0931E01BF91AF919F918F9157
:100610003F912F910F900FBE0F901F901895CF9381
:10062000DF9300D000D0CDB7DEB7789484B5826078
:1006300084BD84B5816084BD85B5826085BD85B586
:10064000816085BD80916E00816080936E00109204
:10065000810080918100826080938100809181007F
:100660008160809381008091800081608093800010
:100670008091B10084608093B1008091B00081606E
:100680008093B00080917A00846080937A0080919A
:100690007A00826080937A0080917A0081608093F2
:1006A0007A0080917A00806880937A001092C1006D
:1006B000E0913101F091320182E08083E0912D01DF
:1006C000F0912E011082E0912F01F09130018FEC1A
:1006D000808310923901E0913501F091360186E076
:1006E0008083E0913301F0913401808180618083C7
:1006F000E0913301F0913401808188608083E09142
:100700003301F0913401808180688083E09133016E
:10071000F091340180818F7D80830E94870010E4F6
:1007200088248A9493E0992EA12CB12C2BE6222EBA
:1007300020E0322E10937C0080917A0080648093B8
:100740007A0080917A0086FDFCCFA091780080919C
:100750007900B0E0B82B2FEF30E00E94E604A5014D
:1007600094010E94960479013093200120931F0187
:1007700029833A834B835C830E94870029813A81D5
:100780004B815C81211531054105510511F480E053
:1007900006C02F3F31054105510521F481E00E943B
:1007A000A30043C0F10184918330F9F048F4813013
:1007B000B9F08230A1F584B5806284BD28BD35C012
:1007C0008730E9F0883019F1843049F58091800054
:1007D00080628093800030938B0020938A0025C034
:1007E00084B5806884BD27BD20C08091800080686A
:1007F00080938000309389002093880016C08091F8
:10080000B00080688093B0002093B3000EC0809148
:10081000B00080628093B0002093B40006C0F0E87E
:10082000EF16F1040CF0BACFB2CFC0901F01D090F8
:1008300020010D2C000CEE08FF08F7FE14C0E0911B
:100840002101F09122010190F081E02D6DE281E221
:1008500091E0099566277727CB016C197D098E09F0
:100860009F094AE003C04AE0C701B6010E941A028C
:1008700042E050E062E171E081E291E00E94EB0031
:100880000E94F5012B013C018AE0C82ED12CE12CFD
:10089000F12C0E94F501DC01CB0184199509A60910
:1008A000B709883E9340A105B10558F021E0C21A6E
:1008B000D108E108F10888EE480E83E0581E611C5B
:1008C000711CC114D104E104F10419F70E94EB0179
:1008D00031CFE1E2F1E01382128288EE93E0A0E0F2
:1008E000B0E084839583A683B78384E091E091830D
:1008F000808385EC90E09587848784EC90E09787EF
:10090000868780EC90E0918B808B81EC90E0938BDC
:10091000828B82EC90E0958B848B86EC90E0978BB9
:10092000868B118E128E138E148E0895052E97FBD2
:100930001EF400940E94AD0457FD07D00E94B50438
:1009400007FC03D04EF40C94AD04509540953095BF
:1009500021953F4F4F4F5F4F08959095809570952B
:1009600061957F4F8F4F9F4F0895A1E21A2EAA1BCA
:10097000BB1BFD010DC0AA1FBB1FEE1FFF1FA2174F
:10098000B307E407F50720F0A21BB30BE40BF50B4C
:10099000661F771F881F991F1A9469F760957095D5
:1009A000809590959B01AC01BD01CF010895A29F58
:1009B000B001B39FC001A39F700D811D1124911D33
:1009C000B29F700D811D1124911D08950E94D704BE
:1009D000B7FF0895821B930B0895EE0FFF1F05903C
:1009E000F491E02D099481E090E0F8940C94F804DF
:0409F000F894FFCFA9
:1009F400000000008201EB001A01C9014B0129012A
:060A04003D010D0A000097
:00000001FF
