:100000000C945D000C944A030C9423030C9485001B
:100010000C9485000C9485000C9485000C9485004C
:100020000C9485000C9485000C9485000C9485003C
:100030000C9485000C9485000C9485000C9485002C
:100040000C94D9020C9485000C94A7020C948102A4
:100050000C9485000C9485000C9485000C9485000C
:100060000C9485000C94850000000008000201003B
:100070000003040700000000000000000000000072
:10008000250028002B0000000000240027002A0083
:10009000040404040404040402020202020203032E
:1000A0000303030301020408102040800102040836
:1000B0001020010204081020D20411241FBECFEF2B
:1000C000D8E0DEBFCDBF11E0A0E0B1E0E6ECFAE0A1
:1000D00002C005900D92AA31B107D9F721E0AAE13B
:1000E000B1E001C01D92A13CB207E1F710E0CDE5FF
:1000F000D0E004C02197FE010E945605CC35D107FF
:10010000C9F70E9471030C9461050C94000090E003
:10011000FC01EC55FF4F2491FC01E057FF4F849107
:10012000882399F090E0880F991FFC01EA57FF4F50
:10013000A591B491FC01E458FF4F859194918FB73C
:10014000F894EC91E22BEC938FBF089590912301EA
:1001500081E098279093230190910401892780934F
:1001600004010895CF92DF92EF92FF920F931F93B5
:10017000CF93DF936C017A018B01C0E0D0E0CE1504
:10018000DF0589F0D8016D918D01D601ED91FC91CB
:100190000190F081E02DC6010995892B11F47E01B3
:1001A00002C02196ECCFC701DF91CF911F910F9133
:1001B000FF90EF90DF90CF900895089580E090E059
:1001C0000895FC01538D448D252F30E0842F90E05D
:1001D000821B930B541710F0CF9608950197089542
:1001E000FC01918D828D981761F0828DDF01A80F3F
:1001F000B11D5D968C91928D9F5F9F73928F90E061
:1002000008958FEF9FEF0895FC01918D828D9817CF
:1002100031F0828DE80FF11D858D90E008958FEF0C
:100220009FEF0895FC01918D228D892F90E0805CD5
:100230009F4F821B91098F739927089584E291E063
:100240000E94120121E0892B09F420E0822F0895F9
:10025000FC01848DDF01A80FB11DA35ABF4F2C9163
:10026000848D90E001968F739927848FA689B78932
:100270002C93A089B1898C9180648C93938D848D0B
:10028000981306C00288F389E02D80818F7D8083DA
:100290000895EF92FF920F931F93CF93DF93EC019A
:1002A00081E0888F9B8D8C8D981305C0E889F98932
:1002B000808185FD24C0F62E0B8D10E00F5F1F4F4F
:1002C0000F731127E02E8C8DE8120CC00FB607FCBF
:1002D000FACFE889F989808185FFF5CFCE010E94A8
:1002E0002801F1CF8B8DFE01E80FF11DE35AFF4F7E
:1002F000F0820B8FEA89FB898081806207C0EE89DA
:10030000FF896083E889F98980818064808381E046
:1003100090E0DF91CF911F910F91FF90EF900895A2
:10032000CF93DF93EC01888D8823C9F0EA89FB899C
:10033000808185FD05C0A889B9898C9186FD0FC093
:100340000FB607FCF5CF808185FFF2CFA889B98968
:100350008C9185FFEDCFCE010E942801E7CFDF9180
:10036000CF91089580E090E0892B29F00E941E0132
:1003700081110C940000089590E0FC01E859FF4FB2
:100380003491FC01EC55FF4F2491FC01E057FF4FE5
:10039000E491EE2309F43BC0332339F1333091F07B
:1003A00038F43130A9F0323001F584B58F7D12C0B8
:1003B000373091F03830A1F03430B9F480918000BA
:1003C0008F7D03C0809180008F77809380000DC067
:1003D00084B58F7784BD09C08091B0008F7703C04A
:1003E0008091B0008F7D8093B000F0E0EE0FFF1F92
:1003F000E458FF4FA591B4918FB7F894EC91611137
:1004000003C020952E2301C02E2B2C938FBF08955F
:100410003FB7F89480911F0190912001A091210194
:10042000B091220126B5A89B05C02F3F19F0019677
:10043000A11DB11D3FBFBA2FA92F982F8827820F6A
:10044000911DA11DB11DBC01CD0142E0660F771FBA
:10045000881F991F4A95D1F7089508958F929F920A
:10046000AF92BF920F931F93CF93DF93CDB7DEB7B9
:10047000A1970FB6F894DEBF0FBECDBF19A24230D0
:1004800008F44AE08E010F5D1F4F842E912CA12CA1
:10049000B12CA50194010E941E05E62FB901CA01E5
:1004A00001501109EA3014F4E05D01C0E95CD801A3
:1004B000EC93232B242B252B61F70115110571F0EB
:1004C000F80101900020E9F73197AF01401B510B73
:1004D000B80184E291E00E94B20002C080E090E0A6
:1004E000A1960FB6F894DEBF0FBECDBFDF91CF91BE
:1004F0001F910F91BF90AF909F908F9008950E9491
:100500005C051F920F920FB60F9211242F933F9309
:100510004F935F936F937F938F939F93AF93BF930B
:10052000EF93FF9384E291E00E942801FF91EF9105
:10053000BF91AF919F918F917F916F915F914F91FB
:100540003F912F910F900FBE0F901F9018951F9203
:100550000F920FB60F9211242F938F939F93EF93C7
:10056000FF93E0913401F09135018081E0913A01EF
:10057000F0913B0182FD12C0908180913D018F5F1F
:100580008F7320913E01821751F0E0913D01F0E020
:10059000EC5DFE4F958F80933D0101C08081FF91FE
:1005A000EF919F918F912F910F900FBE0F901F9001
:1005B00018951F920F920FB60F9211242F933F930D
:1005C0008F939F93AF93BF9380911B0190911C01D8
:1005D000A0911D01B0911E0130911A0123E0230F5B
:1005E0002D3720F40196A11DB11D05C026E8230F6B
:1005F0000296A11DB11D20931A0180931B019093B7
:100600001C01A0931D01B0931E0180911F019091C8
:100610002001A0912101B09122010196A11DB11DDF
:1006200080931F0190932001A0932101B093220198
:10063000BF91AF919F918F913F912F910F900FBEDE
:100640000F901F9018951F920F920FB60F921124C2
:100650002F933F934F935F936F937F938F939F93CA
:10066000AF93BF93EF93FF93E0910201F0910301E9
:100670000995FF91EF91BF91AF919F918F917F91DC
:100680006F915F914F913F912F910F900FBE0F90FF
:100690001F9018951F920F920FB60F9211242F934F
:1006A0003F934F935F936F937F938F939F93AF93FA
:1006B000BF93EF93FF93E0910001F0910101099541
:1006C000FF91EF91BF91AF919F918F917F916F912A
:1006D0005F914F913F912F910F900FBE0F901F9000
:1006E0001895CF93DF9300D000D0CDB7DEB77894C4
:1006F00084B5826084BD84B5816084BD85B5826027
:1007000085BD85B5816085BD80916E0081608093D7
:100710006E00109281008091810082608093810040
:100720008091810081608093810080918000816050
:10073000809380008091B10084608093B1008091AB
:10074000B00081608093B00080917A0084608093D3
:100750007A0080917A00826080937A0080917A009A
:10076000816080937A0080917A00806880937A001B
:100770001092C100E0913401F091350182E0808354
:10078000E0913001F09131011082E0913201F0915D
:1007900033018FEC808310923C01E0913801F0919D
:1007A000390186E08083E0913601F0913701808144
:1007B00080618083E0913601F0913701808188600B
:1007C0008083E0913601F0913701808180688083D9
:1007D000E0913601F091370180818F7D808389E03F
:1007E0000E94870086E00E94870087E00E948700C1
:1007F0006091230186E00E94BC016091040187E0C2
:100800000E94BC0186EA90E0909301018093000170
:1008100080916900836080936900E89A90E4392EA2
:10082000CC24CA9423E0D22EE12CF12C30927C000F
:1008300080917A00806480937A0080917A0086FDAE
:10084000FCCFA091780080917900B0E0B82B2FEF19
:1008500030E00E944F05A70196010E94FF04890124
:1008600089E029833A834B835C830E948700298136
:100870003A814B815C81211531054105510511F407
:1008800060E006C02F3F31054105510529F461E0C4
:1008900089E00E94BC0143C0E1E7F0E0849183302D
:1008A000F9F048F48130B9F08230A1F584B5806266
:1008B00084BD28BD34C08730E9F0883019F1843018
:1008C00049F58091800080628093800030938B0096
:1008D00020938A0024C084B5806884BD27BD1FC0D2
:1008E00080918000806880938000309389002093FD
:1008F000880015C08091B00080688093B00020937C
:10090000B3000DC08091B00080628093B00020934E
:10091000B40005C0003811050CF0B9CFB1CF60911B
:10092000230186E00E94BC016091040187E00E94DF
:10093000BC010E9408024B015C0184E1482E512C4D
:10094000612C712C0E940802DC01CB0188199909E5
:10095000AA09BB09883E9340A105B10558F0F1E012
:100960004F1A51086108710828EE820E23E0921E8A
:10097000A11CB11C411451046104710419F7609168
:10098000230170E080E090E04AE00E942E0242E005
:1009900050E067E171E084E291E00E94B2000E94C1
:1009A000B20144CFE4E2F1E01382128288EE93E0D8
:1009B000A0E0B0E084839583A683B78389E091E0CB
:1009C0009183808385EC90E09587848784EC90E028
:1009D0009787868780EC90E0918B808B81EC90E00C
:1009E000938B828B82EC90E0958B848B86EC90E0ED
:1009F000978B868B118E128E138E148E0895052E72
:100A000097FB1EF400940E94160557FD07D00E9424
:100A10001E0507FC03D04EF40C9416055095409526
:100A2000309521953F4F4F4F5F4F0895909580959A
:100A3000709561957F4F8F4F9F4F0895A1E21A2EB9
:100A4000AA1BBB1BFD010DC0AA1FBB1FEE1FFF1F72
:100A5000A217B307E407F50720F0A21BB30BE40BC2
:100A6000F50B661F771F881F991F1A9469F7609509
:100A70007095809590959B01AC01BD01CF010895C3
:100A8000A29FB001B39FC001A39F700D811D1124CF
:100A9000911DB29F700D811D1124911D08950E941A
:100AA0004005B7FF0895821B930B0895EE0FFF1FBB
:100AB0000590F491E02D099481E090E0F8940C9475
:060AC0006105F894FFCF70
:100AC6002D022D0201000000004901B200E1009054
:0A0AD600011201F00004010D0A00F6
:107E0000112484B714BE81FFF0D085E080938100F7
:107E100082E08093C00088E18093C10086E0809377
:107E2000C20080E18093C4008EE0C9D0259A86E02C
:107E300020E33CEF91E0309385002093840096BBD3
:107E4000B09BFECF1D9AA8958150A9F7CC24DD24C4
:107E500088248394B5E0AB2EA1E19A2EF3E0BF2EE7
:107E6000A2D0813461F49FD0082FAFD0023811F036
:107E7000013811F484E001C083E08DD089C08234E0
:107E800011F484E103C0853419F485E0A6D080C0E4
:107E9000853579F488D0E82EFF2485D0082F10E0AE
:107EA000102F00270E291F29000F111F8ED06801E7
:107EB0006FC0863521F484E090D080E0DECF843638
:107EC00009F040C070D06FD0082F6DD080E0C81688
:107ED00080E7D80618F4F601B7BEE895C0E0D1E017
:107EE00062D089930C17E1F7F0E0CF16F0E7DF06D8
:107EF00018F0F601B7BEE89568D007B600FCFDCFD4
:107F0000A601A0E0B1E02C9130E011968C91119780
:107F100090E0982F8827822B932B1296FA010C0160
:107F200087BEE89511244E5F5F4FF1E0A038BF0790
:107F300051F7F601A7BEE89507B600FCFDCF97BE46
:107F4000E89526C08437B1F42ED02DD0F82E2BD052
:107F50003CD0F601EF2C8F010F5F1F4F84911BD097
:107F6000EA94F801C1F70894C11CD11CFA94CF0C13
:107F7000D11C0EC0853739F428D08EE10CD085E9AC
:107F80000AD08FE07ACF813511F488E018D01DD067
:107F900080E101D065CF982F8091C00085FFFCCF94
:107FA0009093C60008958091C00087FFFCCF809118
:107FB000C00084FD01C0A8958091C6000895E0E648
:107FC000F0E098E1908380830895EDDF803219F02E
:107FD00088E0F5DFFFCF84E1DECF1F93182FE3DFCA
:107FE0001150E9F7F2DF1F91089580E0E8DFEE27F6
:047FF000FF270994CA
:027FFE00040479
:0400000300007E007B
:00000001FF
